:020000040000FA
:060000000A128A11122809
:10000800FE00030E83120313A0000408A1000A08CF
:10001800A2007F08A3000A128A11E82A0A128A118C
:100028001528FB01FC0183120313B201B301B401CB
:10003800B501B601B701B801B901BA01BB01830125
:100048000A128A112728FF30831603138500073008
:100058008600870188013F308100831203138501E0
:100068008601870188018B170B170B16831603135C
:100078000C1483120313901010169016DC308E00A7
:100088000B308F00831603131F109F101F119F1131
:10009800831203131F139F13831603139F139E01C9
:1000A800831203139E011F14831603138115011471
:1000B8008114011564000A128A1185220A128A1114
:1000C8000A128A1105250A128A1183120313881647
:1000D800B201B301B401B50164007D288618752802
:1000E80076287D28B201B3010A128A1105250A1261
:1000F8008A118312031332033304031984288528D1
:100108007228061988288928E328640083120313B3
:10011800B401B5010A128A11C8250A128A1183127C
:100128000313A801A80A01300A128A1144230A12EB
:100138008A1122300A128A11DC240A128A118312C7
:1001480003131014A828881734083504031DAD2894
:10015800AE28B428320833040319B328B428A728D2
:10016800881332083304031DBA28BB28E3280A126F
:100178008A11C8250A128A1183120313A801A80A32
:1001880001300A128A1144230A128A1112300A1203
:100198008A11DC240A128A110B3083120313B1006E
:1001A8002630B0005D30AF00AF0BD828B00BD82890
:1001B800B10BD8280A128A1105250A128A110A12C7
:1001C8008A112B240A128A11831203132508803AF4
:1001D800FF0080307F02031DF32834302402031807
:1001E800F628F7288E290A128A11EE230A128A1194
:1001F800831203132508803AFF0080307F02031D15
:10020800072934302402031C0A290B298E2983125A
:10021800031332083304031D122913298E2964009D
:100228000A128A11C8250A128A1183120313A80117
:10023800A80A01300A128A1144230A128A112230AC
:100248000A128A11DC240A128A11352964008312E1
:10025800031332033304031D3229332934295D295A
:1002680088170A128A112B240A128A11831203137F
:100278002508803AFF0080307F02031D4529CD30D4
:1002880024020318482949295D290A128A11EE23F4
:100298000A128A11831203132508803AFF0080305E
:1002A8007F02031D59293430240203185C295D2973
:1002B8002A298312031332083304031D642965298C
:1002C8008E2988130A128A11C8250A128A118312E4
:1002D8000313A801A80A01300A128A1144230A123A
:1002E8008A1112300A128A11DC240A128A110B3080
:1002F80083120313B1002630B0005D30AF00AF0B9E
:100308008329B00B8329B10B83290A128A11052589
:100318000A128A110A128A11EE230A128A1183120A
:1003280003132508803AFF0080307F02031D9E29B1
:10033800343024020318A129A229702864008312EA
:100348000313B401B50108170A128A11C8250A1245
:100358008A1183120313A801A80A01300A128A110C
:1003680044230A128A1101300A128A11DC240A1263
:100378008A1183120313A801A80A02300A128A11EB
:1003880044230A128A1155300A128A11DC240A12EF
:100398008A11831203131014ED2932033304031D49
:1003A800D629D729D829F9290A128A11EE230A123F
:1003B8008A11831203132508803AFF0080307F02D8
:1003C800031DE82934302402031CEB29EC29ED290C
:1003D800F9298312031334083504031DF429F52978
:1003E800F9290619F829F929D129831203130813C1
:1003F80032083304031D012A022A70280A128A11BE
:1004080005250A128A110B3083120313B100263016
:10041800B0005D30AF00AF0B0F2AB00B0F2AB10B45
:100428000F2A70280A128A11122802308A0004083A
:10043800840A820700344534533454344F345134D9
:1004480055344534203445344D3420344E34493401
:10045800563445344C3400345234413443344134F6
:100468004F34203443344F344C344F3443344134C4
:10047800443441342E3400344434453453345034F5
:1004880045344A3441344E3444344F342E342E34B7
:100498002E340034463455344E34433449344F34C2
:1004A8004E3441344D3445344E3454344F34003492
:1004B80049344E3454344534523452344F344D3424
:1004C8005034493444344F34003453344934473475
:1004D8004D344134203444344F34473400344234AA
:1004E8004134493458344F342E342E342E340034A9
:1004F8004734523449344E344434533445345434F4
:10050800003400300A128A1172250A128A111A3030
:1005180083120313A900F730A800A80B912AA90B8E
:10052800912A962A03300A128A1192250A128A11F0
:10053800073083120313A9007C30A800A80BA22A55
:10054800A90BA22A000003300A128A1192250A1266
:100558008A110F3083120313A9004730A800A80B93
:10056800B32AA90BB32A03300A128A1192250A1258
:100578008A1102300A128A1192250A128A1102304F
:100588000A128A1192250A128A1108300A128A114F
:1005980092250A128A1100300A128A1192250A122B
:1005A8008A110C300A128A1192250A128A11003017
:1005B8000A128A1192250A128A1106300A128A1121
:1005C80092250A128A1108000C1CEB2AEC2A092B26
:1005D8000C10DC308E000B308F0064000130FB07FC
:1005E8000318FC0A0030FC0708307B067C04031D56
:1005F800FE2AFF2A372B831203131010FB01FC017C
:100608000130B4000030B500372B8B1C0C2B0D2BA0
:10061800372B8B10881364000A128A11D5250A1209
:100628008A11F401F40A01300A128A119C230A1271
:100638008A1130300A128A112B250A128A11F40104
:10064800F40A02300A128A119C230A128A113E30D7
:100658000A128A112B250A128A11013083120313F8
:10066800B2000030B300831203132308FF002208EE
:100678008A0021088400200E8300FE0E7E0E0900E9
:1006880083120313AB002B03031D4B2B4C2B712B35
:1006980028087F3EA9002908AE002E08A9000430CA
:1006A8000310A90CFF3E031D542B2908AA002A0891
:1006B800AC002E080F39A9002908AD002C080A1231
:1006C8008A1192250A128A11831203132D080A121D
:1006D8008A1192250A128A119B2B02302B06031DC0
:1006E800762B772B9B2B2808BF3EA9002908AE0044
:1006F8002E08A90004300310A90CFF3E031D7F2B10
:100708002908AA002A08AC002E080F39A9002908D0
:10071800AD002C080A128A1192250A128A11831236
:1007280003132D080A128A1192250A128A11080049
:10073800F7007703031DA12BA22BC52B74087F3E5E
:10074800F5007508FA007A08F50004300310F50C76
:10075800FF3E031DAA2B7508F6007608F8007A08F4
:100768000F39F5007508F90078080A128A11AE25C4
:100778000A128A1179080A128A11AE250A128A11F8
:10078800ED2B02307706031DCA2BCB2BED2B7408FB
:10079800BF3EF5007508FA007A08F500043003102A
:1007A800F50CFF3E031DD32B7508F6007608F800FC
:1007B8007A080F39F5007508F90078080A128A11C5
:1007C800AE250A128A1179080A128A11AE250A1270
:1007D8008A110800023083120313A600A60BF22B1D
:1007E8000000831203139F11023083120313A60023
:1007F800A60BFC2B0000831203131F120230831276
:100808000313A600A60B062C0000831203139F12E5
:10081800023083120313A600A60B102C00008312CB
:1008280003131F15023083120313A600A60B1A2CFC
:100838000000831203131E08A600A7012608A800BB
:100848002708A9002908A5002808A40008000230E4
:1008580083120313A600A60B2F2C00008312031388
:100868009F15023083120313A600A60B392C000033
:10087800831203131F12023083120313A600A60B60
:10088800432C0000831203139F12023083120313B8
:10089800A600A60B4D2C0000831203131F1502306F
:1008A80083120313A600A60B572C00008312031310
:1008B8001E08A600A7012608A8002708A9002908DD
:1008C800A5002808A400080083120313A80028081C
:1008D8000F39A5002508A6002808F039A500250825
:1008E800A70007142708A50004300310A50CFF3E35
:1008F800031D792C25080A128A1172250A128A11F9
:100908008312031307150C3083120313A500A50BDC
:100918008B2C000083120313071126080A128A1170
:1009280072250A128A118312031307150C308312D9
:100938000313A500A50B9E2C0000831203130711B7
:100948000800F40074080F39F1007108F200740807
:10095800F039F1007108F3008312031307147308C8
:10096800F10004300310F10CFF3E031DB62C710892
:100978000A128A1150250A128A11831203130715C5
:100988000D30F100F10BC62C831203130711720806
:100998000A128A1150250A128A11831203130715A5
:1009A8000D30F100F10BD62C831203130711080048
:1009B80083120313AB00A901AA01F72C29082B07FE
:1009C80084000A128A1119220A128A110A128A113B
:1009D80068240A128A11013083120313A907031825
:1009E800AA0A0030AA0729082B0784000A128A11CC
:1009F80019220A128A11003A031D032D042DE22C34
:100A080008000A128A11C8250A128A1183120313D0
:100A1800A801A80A01300A128A1144230A128A116D
:100A28004B300A128A11DC240A128A11831203132A
:100A3800A801A80A02300A128A1144230A128A114C
:100A48005E300A128A11DC240A128A110800F500A5
:100A5800F601F701422D7608750784000A128A11FB
:100A680019220A128A110A128A11A5240A128A1155
:100A78000130F6070318F70A0030F70776087507FC
:100A880084000A128A1119220A128A11003A031DD7
:100A98004E2D4F2D2F2D0800F000701C542D552D74
:100AA800592D8312031307165C2D831203130712A3
:100AB800F01C5F2D602D622D8716632D8712701D27
:100AC800662D672D692D07176A2D0713F01D6D2DEB
:100AD8006E2D702D8717712D87130800831203134D
:100AE800A400241C782D792D7B2D07167C2D071248
:100AF800A41C7F2D802D822D8716832D8712241DFF
:100B0800862D872D892D07178A2D0713A41D8D2D56
:100B18008E2D902D8717912D8713080083120313AC
:100B2800A700071027080A128A1172250A128A11CB
:100B3800831203130715063083120313A6002F3000
:100B4800A500A50BA52DA60BA52DAA2D8312031371
:100B580007110800F30083120313071073080A1221
:100B68008A1150250A128A118312031307150630B9
:100B7800F2003030F100F10BBF2DF20BBF2D000059
:100B8800831203130711080000300A128A119225F4
:100B98000A128A1101300A128A1192250A128A1140
:100BA800080000300A128A11AE250A128A11013093
:0C0BB8000A128A11AE250A128A110800E8
:02400E00F63F7B
:00000001FF
