:020000040000FA
:060000000A128A11122809
:10000800FE00030E83120313A0000408A1000A08CF
:10001800A2007F08A3000A128A11162A0A128A115E
:100028001528FB01FC0183120313AF01B001B101D4
:10003800B20183010A128A112128FF3083160313A3
:10004800850003308600870188013F3081008312D4
:10005800031385018601870188018B170B170B167F
:10006800831603130C1483120313901010169016A2
:10007800DC308E000B308F000A128A11CC200A1255
:100088008A110A128A1184230A128A11831203130D
:10009800A801A80A01300A128A112F210A128A110E
:1000A8001F300A128A11BE220A128A118312031300
:1000B800A801A80A02300A128A112F210A128A11ED
:1000C80029300A128A11BE220A128A1183120313D6
:1000D80088168312031331033204031D742875280C
:1000E8007728B101B201881386187B287C286D28EF
:1000F8000A128A1184230A128A1183120313A8018F
:10010800A80A01300A128A112F210A128A11113005
:100118000A128A11BE220A128A118312031388173F
:100128009F2831033204031D9A289B289E28B10179
:10013800B201C9288817861CA228A32895280A1264
:100148008A1184230A128A1183120313A801A80AA8
:1001580001300A128A112F210A128A111F300A123D
:100168008A11BE220A128A1183120313A801A80A4F
:1001780002300A128A112F210A128A1129300A1212
:100188008A11BE220A128A116D280A128A111228AF
:1001980000300A128A112E230A128A111A30831289
:1001A8000313A900F730A800A80BD828A90BD82852
:1001B800DD2803300A128A114E230A128A110730E9
:1001C80083120313A9007C30A800A80BE928A90B07
:1001D800E928000003300A128A114E230A128A11F4
:1001E8000F3083120313A9004730A800A80BFA2880
:1001F800A90BFA2803300A128A114E230A128A110F
:1002080002300A128A114E230A128A1102300A1287
:100218008A114E230A128A1108300A128A114E23B3
:100228000A128A1100300A128A114E230A128A1100
:100238000C300A128A114E230A128A1100300A124F
:100248008A114E230A128A1106300A128A114E2385
:100258000A128A11080083120313AB002B03031D33
:10026800362937295C2928087F3EA9002908AE00CD
:100278002E08A90004300310A90CFF3E031D3F29D6
:100288002908AA002A08AC002E080F39A900290855
:10029800AD002C080A128A114E230A128A11831201
:1002A80003132D080A128A114E230A128A1186296D
:1002B80002302B06031D6129622986292808BF3EC2
:1002C800A9002908AE002E08A90004300310A90CC3
:1002D800FF3E031D6A292908AA002A08AC002E0837
:1002E8000F39A9002908AD002C080A128A114E23DB
:1002F8000A128A11831203132D080A128A114E2337
:100308000A128A110800F7007703031D8C298D292A
:10031800B02974087F3EF5007508FA007A08F500E0
:1003280004300310F50CFF3E031D95297508F600EF
:100338007608F8007A080F39F5007508F90078088A
:100348000A128A116A230A128A1179080A128A1172
:100358006A230A128A11D82902307706031DB529A3
:10036800B629D8297408BF3EF5007508FA007A083E
:10037800F50004300310F50CFF3E031DBE29750877
:10038800F6007608F8007A080F39F5007508F900C4
:1003980078080A128A116A230A128A1179080A123D
:1003A8008A116A230A128A11080083120313A8000B
:1003B80028080F39A5002508A6002808F039A50047
:1003C8002508A70007142708A50004300310A50C6A
:1003D800FF3E031DEA2925080A128A112E230A1254
:1003E8008A118312031307150C3083120313A50017
:1003F800A50BFC29000083120313071126080A1213
:100408008A112E230A128A118312031307150C303E
:1004180083120313A500A50B0F2A000083120313F0
:10042800071108000C1C192A1A2A262A0C10DC307D
:100438008E000B308F000130AF070318B00A003070
:10044800B007452A8B1C292A2A2A452A8B1088138B
:100458000A128A1191230A128A11F401F40A01304E
:100468000A128A1187210A128A1101300A128A1186
:10047800E7220A128A11013083120313B1000030F7
:10048800B2002308FF0022088A0021088400200EF9
:100498008300FE0E7E0E090002308A000408840ADA
:1004A8008207003449344E3454344534523452347B
:1004B8004F344D345034493444344F342E342E3470
:1004C8002E340034443445345334503445344A349B
:1004D80041344E3444344F342E342E342E340034C8
:1004E8005334493447344D344134203444344F3440
:1004F800473400344734523449344E344434533446
:10050800453454340034F40074080F39F10071088C
:10051800F2007408F039F1007108F3008312031334
:1005280007147308F10004300310F10CFF3E031D9B
:10053800982A71080A128A110C230A128A11831246
:10054800031307150D30F100F10BA82A83120313CA
:10055800071172080A128A110C230A128A118312CF
:10056800031307150D30F100F10BB82A831203139A
:100578000711080083120313AB00A901AA01D92AA5
:1005880029082B0784000A128A1150220A128A119C
:100598000A128A11D9210A128A110130831203130F
:1005A800A9070318AA0A0030AA0729082B078400FC
:1005B8000A128A1150220A128A11003A031DE52AEA
:1005C800E62AC42A0800F500F601F701FE2A760893
:1005D800750784000A128A1150220A128A110A1217
:1005E8008A1187220A128A110130F6070318F70ABE
:1005F8000030F7077608750784000A128A1150221E
:100608000A128A11003A031D0A2B0B2BEB2A080049
:10061800F000701C102B112B152B831203130716D7
:10062800182B831203130712F01C1B2B1C2B1E2BD9
:1006380087161F2B8712701D222B232B252B07179C
:10064800262B0713F01D292B2A2B2C2B87172D2B34
:100658008713080083120313A400241C342B352BA2
:10066800372B0716382B0712A41C3B2B3C2B3E2B91
:1006780087163F2B8712241D422B432B452B071728
:10068800462B0713A41D492B4A2B4C2B87174D2BA0
:100698008713080083120313A700071027080A12FC
:1006A8008A112E230A128A118312031307150630A2
:1006B80083120313A6002F30A500A50B612BA60BF0
:1006C800612B662B8312031307110800F3008312B2
:1006D8000313071073080A128A110C230A128A11CD
:1006E8008312031307150630F2003030F100F10BC6
:1006F8007B2BF20B7B2B00008312031307110800DE
:1007080000300A128A114E230A128A1101300A1285
:100718008A114E230A128A11080000300A128A111F
:100728006A230A128A1101300A128A116A230A12EC
:040738008A1108001A
:02400E00F23F7F
:00000001FF
