:020000040000FA
:060000000A128A1110280B
:10000800FE00030EFA000408FB000A08FC007F0843
:10001800FD000A128A11C7290A128A1113288312AD
:100028000313AD01AE01AF01B001B101B201B301DB
:10003800B401B501B601B701B80183010A128A11EA
:100048002528FF30831603138500033086008701B7
:1000580088013F30810083120313850186018701DF
:1000680088018B170B170B16831603130C148312B6
:100078000313901010169016DC308E000B308F0092
:10008800831603131F109F101F159F11831203134C
:100098001F139F13831603139F139E0183120313C9
:1000A8009E011F140A128A1118210A128A110A12B3
:1000B8008A1134230A128A11831203138816AF0196
:1000C800B001B101B201831203139F111F129F12D5
:1000D8001F15023083120313AA00AA0B712800000F
:1000E800831203131E08AA00AB012A08B7002B08C5
:1000F800B800063083120313AC001330AB00AD30E8
:10010800AA00AA0B8528AB0B8528AC0B852883127F
:1001180003139F151F129F121F150230831203131A
:10012800AA00AA0B95280000831203131E08AA0030
:10013800AB012A08B5002B08B6002F033004031DB5
:10014800A628A728BC28AF01B0010B3083120313DF
:10015800AC002630AB005D30AA00AA0BB128AB0B6F
:10016800B128AC0BB1280A128A1134230A128A1159
:100178008312031388138618C228C3286728B1017D
:10018800B2010A128A11F7230A128A118312031381
:10019800A401A40A01300A128A117B210A128A11C9
:1001A80021300A128A110B230A128A1183120313AF
:1001B8001014DF288817310832040319E428E528C9
:1001C800DE2888132F083004031DEB28EC280129AA
:1001D8000A128A11F7230A128A1183120313A4013F
:1001E800A40A01300A128A117B210A128A111130DD
:1001F8000A128A110B230A128A110B308312031375
:10020800AC002630AB005D30AA00AA0B0929AB0B65
:100218000929AC0B09290A128A1134230A128A11F6
:1002280067280A128A11102800300A128A11A1239D
:100238000A128A111A3083120313A500F730A4009A
:10024800A40B2429A50B2429292903300A128A1171
:10025800C1230A128A11073083120313A5007C30C8
:10026800A400A40B3529A50B3529000003300A1278
:100278008A11C1230A128A110F3083120313A500B1
:100288004730A400A40B4629A50B462903300A12BF
:100298008A11C1230A128A1102300A128A11C12353
:1002A8000A128A1102300A128A11C1230A128A110B
:1002B80008300A128A11C1230A128A1100300A1260
:1002C8008A11C1230A128A110C300A128A11C12319
:1002D8000A128A1100300A128A11C1230A128A11DD
:1002E80006300A128A11C1230A128A1108008312E1
:1002F8000313A6002603031D82298329A2292408A3
:100308007F3EA9002908A50004300310A50CFF3E74
:10031800031D89292508A70029080F39A8002708DF
:100328000A128A11C1230A128A1183120313280898
:100338000A128A11C1230A128A11C6290230260616
:10034800031DA729A829C6292408BF3EA9002908F2
:10035800A50004300310A50CFF3E031DAE29250897
:10036800A70029080F39A80027080A128A11C123F3
:100378000A128A118312031328080A128A11C12348
:100388000A128A110800831203130C1CCC29CD29E8
:10039800E7290C10DC308E000B308F000130AD07E0
:1003A8000318AE0A0030AE0708302D062E04031DD0
:1003B800DE29DF29072A1010AD01AE010130B10096
:1003C8000030B200072A8B1CEA29EB29072A8B1078
:1003D80088130A128A1104240A128A11F401F40AF1
:1003E80001300A128A1159220A128A1101300A129E
:1003F8008A115A230A128A11013083120313AF009B
:100408000030B000E2297D08FF007C088A007B08E4
:1004180084007A0E8300FE0E7E0E090002308A00E8
:100428000408840A8207003449344E34543445346D
:10043800523452344F344D345034493444344F34A8
:100448002E342E342E340034523441344334413463
:100458004F34203443344F344C344F3443344134D4
:10046800443441342E340034443445345334503405
:1004780045344A3441344E3444344F342E342E34C7
:100488002E3400345334493447344D344134203405
:1004980044344F34473400344734523449344E34AA
:1004A80044345334453454340034F6007603031D81
:1004B8005E2A5F2A7C2A74087F3EF9007908F500D5
:1004C80004300310F50CFF3E031D652A7508F7007C
:1004D80079080F39F80077080A128A11DD230A1201
:1004E8008A1178080A128A11DD230A128A119E2AB3
:1004F80002307606031D812A822A9E2A7408BF3E8E
:10050800F9007908F50004300310F50CFF3E031DCF
:10051800882A7508F70079080F39F80077080A1251
:100528008A11DD230A128A1178080A128A11DD233A
:100538000A128A11080083120313A40024080F3931
:10054800A2002408F039A30007142308A1000430EE
:100558000310A10CFF3E031DAC2A21080A128A11C0
:10056800A1230A128A118312031307150C30831270
:100578000313A100A10BBE2A000083120313071165
:1005880022080A128A11A1230A128A11831203135C
:1005980007150C3083120313A100A10BD12A000008
:1005A8008312031307110800F40074080F39F200CE
:1005B8007408F039F3008312031307147308F10069
:1005C80004300310F10CFF3E031DE52A71080A12DE
:1005D8008A117F230A128A118312031307150D301B
:1005E800F100F10BF52A83120313071172080A129E
:1005F8008A117F230A128A118312031307150D30FB
:10060800F100F10B052B8312031307110800831265
:100618000313A700A501A601262B25082707840098
:100628000A128A1112220A128A110A128A119F22A8
:100638000A128A11013083120313A5070318A60AA8
:100648000030A6072508270784000A128A111222FB
:100658000A128A11003A031D322B332B112B080082
:100668000A128A11F7230A128A1183120313A401AA
:10067800A40A01300A128A117B210A128A112F302A
:100688000A128A110B230A128A1183120313A40176
:10069800A40A02300A128A117B210A128A113930FF
:1006A8000A128A110B230A128A110800F500F601B2
:1006B800F701712B7608750784000A128A11122235
:1006C8000A128A110A128A11D8220A128A110130D2
:1006D800F6070318F70A0030F7077608750784004D
:1006E8000A128A1112220A128A11003A031D7D2B5E
:1006F8007E2B5E2B0800F000701C832B842B882B2C
:100708008312031307168B2B831203130712F01C93
:100718008E2B8F2B912B8716922B8712701D952B62
:10072800962B982B0717992B0713F01D9C2B9D2BA5
:100738009F2B8717A02B8713080083120313A00091
:10074800201CA72BA82BAA2B0716AB2B0712A01C23
:10075800AE2BAF2BB12B8716B22B8712201DB52BD2
:10076800B62BB82B0717B92B0713A01DBC2BBD2B15
:10077800BF2B8717C02B8713080083120313A3000E
:10078800071023080A128A11A1230A128A11831258
:1007980003130715063083120313A2002F30A1009C
:1007A800A10BD42BA20BD42BD92B83120313071123
:1007B8000800F30083120313071073080A128A1142
:1007C8007F230A128A118312031307150630F200D9
:1007D8003030F100F10BEE2BF20BEE2B0000831200
:1007E80003130711080000300A128A11C1230A12E4
:1007F8008A1101300A128A11C1230A128A110800CB
:1008080000300A128A11DD230A128A1101300A12F5
:0A0818008A11DD230A128A1108007C
:02400E00F23F7F
:00000001FF
