:020000040000FA
:060000000A128A11122809
:10000800FE00030E83120313A0000408A1000A08CF
:10001800A2007F08A3000A128A11262A0A128A114E
:100028001528FB01FC0183120313B201B301B401CB
:10003800B501B601B701B801B901BA01BB01830125
:100048000A128A112728FF3083160313850003300C
:100058008600870188013F308100831203138501E0
:100068008601870188018B170B170B16831603135C
:100078000C1483120313901010169016DC308E00A7
:100088000B308F00831603131F109F101F119F1131
:10009800831203131F139F13831603139F139E01C9
:1000A800831203139E011F140A128A1119210A12BE
:1000B8008A110A128A11CD230A128A118312031394
:1000C8008816B201B301B401B5010A128A11F322EC
:1000D8000A128A11831203132508BB002408BA00E8
:1000E8000A128A11B6220A128A11831203132508EA
:1000F800B9002408B80032033304031D8428852876
:100108009A28B201B3010B3083120313B1002630D1
:10011800B0005D30AF00AF0B8F28B00B8F28B10B4C
:100128008F280A128A11CD230A128A118312031307
:100138003B08803AFF0080307F02031DA528343039
:100148003A020318A828A928BD2883120313081700
:10015800063083120313B1001330B000AD30AF0086
:10016800AF0BB428B00BB428B10BB4288312031317
:1001780008138312031388138618C328C428692810
:10018800B401B5010A128A1190240A128A11831245
:100198000313A801A80A01300A128A117C210A1245
:1001A8008A1121300A128A11A4230A128A11831291
:1001B80003131014E0288817340835040319E528B8
:1001C800E628DF28881332083304031DEC28ED28BD
:1001D80002290A128A1190240A128A11831203131F
:1001E800A801A80A01300A128A117C210A128A1170
:1001F80011300A128A11A4230A128A110B308312B1
:100208000313B1002630B0005D30AF00AF0B0A29F0
:10021800B00B0A29B10B0A290A128A11CD230A1236
:100228008A1169280A128A11122800300A128A11C2
:100238003A240A128A111A3083120313A900F730DC
:10024800A800A80B2529A90B25292A2903300A1259
:100258008A115A240A128A11073083120313A9003B
:100268007C30A800A80B3629A90B362900000330DA
:100278000A128A115A240A128A110F3083120313A0
:10028800A9004730A800A80B4729A90B4729033024
:100298000A128A115A240A128A1102300A128A1181
:1002A8005A240A128A1102300A128A115A240A128E
:1002B8008A1108300A128A115A240A128A11003047
:1002C8000A128A115A240A128A110C300A128A1147
:1002D8005A240A128A1100300A128A115A240A1260
:1002E8008A1106300A128A115A240A128A11080041
:1002F80083120313AB002B03031D83298429A92927
:1003080028087F3EA9002908AE002E08A90004305D
:100318000310A90CFF3E031D8C292908AA002A08EE
:10032800AC002E080F39A9002908AD002C080A12C4
:100338008A115A240A128A11831203132D080A12E9
:100348008A115A240A128A11D32902302B06031D56
:10035800AE29AF29D3292808BF3EA9002908AE0035
:100368002E08A90004300310A90CFF3E031DB7296D
:100378002908AA002A08AC002E080F39A900290864
:10038800AD002C080A128A115A240A128A11831203
:1003980003132D080A128A115A240A128A11080016
:1003A800F7007703031DD929DA29FD2974087F3E50
:1003B800F5007508FA007A08F50004300310F50C0A
:1003C800FF3E031DE2297508F6007608F8007A0852
:1003D8000F39F5007508F90078080A128A11762491
:1003E8000A128A1179080A128A1176240A128A11C5
:1003F800252A02307706031D022A032A252A7408B3
:10040800BF3EF5007508FA007A08F50004300310BD
:10041800F50CFF3E031D0B2A7508F6007608F80058
:100428007A080F39F5007508F90078080A128A1158
:1004380076240A128A1179080A128A1176240A1275
:100448008A1108000C1C292A2A2A442A0C10DC309C
:100458008E000B308F000130FB070318FC0A0030B8
:10046800FC0708307B067C04031D3B2A3C2A642ACF
:100478001010FB01FC010130B4000030B500642A03
:100488008B1C472A482A642A8B1088130A128A115F
:100498009D240A128A11F401F40A01300A128A1101
:1004A800D4210A128A1101300A128A11F3230A127E
:1004B8008A11013083120313B2000030B3003F2ABF
:1004C8002308FF0022088A0021088400200E8300E8
:1004D800FE0E7E0E090002308A000408840A820794
:1004E800003449344E3454344534523452344F3441
:1004F8004D345034493444344F342E342E342E3451
:10050800003452344134433441344F34203443347A
:100518004F344C344F3443344134443441342E3412
:100528000034443445345334503445344A34413427
:100538004E3444344F342E342E342E340034533455
:10054800493447344D344134203444344F344734EB
:1005580000344734523449344E34443453344534E7
:1005680054340034023083120313A600A60BBA2AAF
:100578000000831203139F15023083120313A60091
:10058800A60BC42A0000831203131F120230831221
:100598000313A600A60BCE2A0000831203139F1292
:1005A800023083120313A600A60BD82A0000831278
:1005B80003131F15023083120313A600A60BE22AA9
:1005C8000000831203131E08A600A7012608A8002E
:1005D8002708A9002908A5002808A4000800023057
:1005E80083120313A600A60BF72A00008312031335
:1005F8009F11023083120313A600A60B012B0000E3
:10060800831203131F12023083120313A600A60BD2
:100618000B2B0000831203139F1202308312031363
:10062800A600A60B152B0000831203131F1502301A
:1006380083120313A600A60B1F2B000083120313BB
:100648001E08A600A7012608A8002708A90029084F
:10065800A5002808A400080083120313A80028088E
:100668000F39A5002508A6002808F039A500250897
:10067800A70007142708A50004300310A50CFF3EA7
:10068800031D412B25080A128A113A240A128A11DD
:100698008312031307150C3083120313A500A50B4F
:1006A800532B000083120313071126080A128A111C
:1006B8003A240A128A118312031307150C30831285
:1006C8000313A500A50B662B000083120313071163
:1006D8000800F40074080F39F1007108F20074087A
:1006E800F039F1007108F30083120313071473083B
:1006F800F10004300310F10CFF3E031D7E2B71083E
:100708000A128A1118240A128A1183120313071570
:100718000D30F100F10B8E2B8312031307117208B1
:100728000A128A1118240A128A1183120313071550
:100738000D30F100F10B9E2B8312031307110800F3
:1007480083120313AB00A901AA01BF2B29082B07A9
:1007580084000A128A116F220A128A110A128A1157
:1007680030230A128A11013083120313A9070318D0
:10077800AA0A0030AA0729082B0784000A128A113E
:100788006F220A128A11003A031DCB2BCC2BAA2BFD
:1007980008000A128A1190240A128A11831203137C
:1007A800A801A80A01300A128A117C210A128A11AA
:1007B8002F300A128A11A4230A128A1183120313F2
:1007C800A801A80A02300A128A117C210A128A1189
:1007D80039300A128A11A4230A128A110800F50076
:1007E800F601F7010A2C7608750784000A128A11A7
:1007F8006F220A128A110A128A116D230A128A11AB
:100808000130F6070318F70A0030F707760875076E
:1008180084000A128A116F220A128A11003A031DF3
:10082800162C172CF72B0800F000701C1C2C1D2C04
:10083800212C831203130716242C83120313071287
:10084800F01C272C282C2A2C87162B2C8712701D7D
:100858002E2C2F2C312C0717322C0713F01D352C7A
:10086800362C382C8717392C87130800831203136A
:10087800A400241C402C412C432C0716442C07129E
:10088800A41C472C482C4A2C87164B2C8712241D55
:100898004E2C4F2C512C0717522C0713A41D552CE6
:1008A800562C582C8717592C8713080083120313CA
:1008B800A700071027080A128A113A240A128A1177
:1008C800831203130715063083120313A6002F3073
:1008D800A500A50B6D2CA60B6D2C722C831203138F
:1008E80007110800F30083120313071073080A1294
:1008F8008A1118240A128A11831203130715063065
:10090800F2003030F100F10B872CF20B872C00003D
:10091800831203130711080000300A128A115A249F
:100928000A128A1101300A128A115A240A128A11EB
:10093800080000300A128A1176240A128A1101303E
:0C0948000A128A1176240A128A11080093
:02400E00F23F7F
:00000001FF
