:020000040000FA
:060000000A128A1110280B
:10000800FE00030EFA000408FB000A08FC007F0843
:10001800FD000A128A11A3290A128A1113288312D1
:100028000313AD01AE01AF01B001B101B201B301DB
:10003800B401B501B601B701B80183010A128A11EA
:100048002528FF30831603138500033086008701B7
:1000580088013F30810083120313850186018701DF
:1000680088018B170B170B16831603130C148312B6
:100078000313901010169016DC308E000B308F0092
:10008800831603131F109F101F119F118312031350
:100098001F139F13831603139F139E0183120313C9
:1000A8009E011F140A128A11F4200A128A110A12D8
:1000B8008A119C230A128A11831203138816AF012E
:1000C800B001B101B2010A128A11CA220A128A11B8
:1000D800831203132108B8002008B7000A128A11F6
:1000E8008D220A128A11831203132108B6002008F0
:1000F800B5002F033004031D822883289828AF01F8
:10010800B0010B3083120313AC002630AB005D3016
:10011800AA00AA0B8D28AB0B8D28AC0B8D280A12D0
:100128008A119C230A128A118312031388138618D2
:100138009E289F286728B101B2010A128A115F24FC
:100148000A128A1183120313A401A40A01300A12A5
:100158008A1157210A128A1121300A128A1173232F
:100168000A128A11831203131014BB288817310846
:1001780032040319C028C128BA2888132F0830046C
:10018800031DC728C828DD280A128A115F240A120D
:100198008A1183120313A401A40A01300A128A11D6
:1001A80057210A128A1111300A128A1173230A126E
:1001B8008A110B3083120313AC002630AB005D307C
:1001C800AA00AA0BE528AB0BE528AC0BE5280A1218
:1001D8008A119C230A128A1167280A128A11102888
:1001E80000300A128A1109240A128A111A3083125D
:1001F8000313A500F730A400A40B0029A50B0029C0
:10020800052903300A128A1129240A128A11073093
:1002180083120313A5007C30A400A40B1129A50B9D
:100228001129000003300A128A1129240A128A119E
:100238000F3083120313A5004730A400A40B222912
:10024800A50B222903300A128A1129240A128A11BD
:1002580002300A128A1129240A128A1102300A125B
:100268008A1129240A128A1108300A128A112924AB
:100278000A128A1100300A128A1129240A128A11D4
:100288000C300A128A1129240A128A1100300A1223
:100298008A1129240A128A1106300A128A1129247D
:1002A8000A128A11080083120313A6002603031DED
:1002B8005E295F297E2924087F3EA9002908A50018
:1002C80004300310A50CFF3E031D65292508A7006F
:1002D80029080F39A80027080A128A1129240A12A6
:1002E8008A118312031328080A128A1129240A1270
:1002F8008A11A22902302606031D83298429A229EE
:100308002408BF3EA9002908A50004300310A50C45
:10031800FF3E031D8A292508A70029080F39A800D0
:1003280027080A128A1129240A128A118312031330
:1003380028080A128A1129240A128A11080083122D
:1003480003130C1CA829A929C3290C10DC308E0022
:100358000B308F000130AD070318AE0A0030AE072E
:1003680008302D062E04031DBA29BB29E3291010D5
:10037800AD01AE010130B1000030B200E3298B1CA1
:10038800C629C729E3298B1088130A128A116C24FD
:100398000A128A11F401F40A01300A128A1147225A
:1003A8000A128A1101300A128A11C2230A128A110A
:1003B800013083120313AF000030B000BE297D085E
:1003C800FF007C088A007B0884007A0E8300FE0EFA
:0403D8007E0E09008C
:1004000002308A000408840A8207003449344E34DA
:1004100054344534523452344F344D3450344934CA
:1004200044344F342E342E342E340034523441347C
:10043000433441344F34203443344F344C344F34FC
:1004400043344134443441342E340034443445344C
:100450005334503445344A3441344E3444344F34A8
:100460002E342E342E3400345334493447344D3432
:100470004134203444344F34473400344734523408
:1004800049344E3444345334453454340034F60043
:100490007603031D4C2A4D2A6A2A74087F3EF90010
:1004A0007908F50004300310F50CFF3E031D532AB4
:1004B0007508F70079080F39F80077080A128A11D1
:1004C00045240A128A1178080A128A1145240A1250
:1004D0008A118C2A02307606031D6F2A702A8C2A14
:1004E0007408BF3EF9007908F50004300310F50CDC
:1004F000FF3E031D762A7508F70079080F39F800CA
:1005000077080A128A1145240A128A1178080A12F9
:100510008A1145240A128A1108000230831203133B
:10052000A200A20B912A0000831203139F15023030
:1005300083120313A200A20B9B2A00008312031351
:100540001F12023083120313A200A20BA52A00007F
:10055000831203139F12023083120313A200A20B13
:10056000AF2A0000831203131F15023083120313F6
:10057000A200A20BB92A0000831203131E08A200D6
:10058000A3012208A4002308A5002508A10024082F
:10059000A0000800023083120313A200A20BCE2A8F
:1005A0000000831203139F11023083120313A20071
:1005B000A20BD82A0000831203131F1202308312E9
:1005C0000313A200A20BE22A0000831203139F125E
:1005D000023083120313A200A20BEC2A0000831244
:1005E00003131F15023083120313A200A20BF62A75
:1005F0000000831203131E08A200A3012208A40016
:100600002308A5002508A1002408A00008008312E3
:100610000313A40024080F39A2002408F039A30012
:1006200007142308A10004300310A10CFF3E031D92
:10063000142B21080A128A1109240A128A11831222
:10064000031307150C3083120313A100A10B262BF3
:10065000000083120313071122080A128A110924C9
:100660000A128A118312031307150C308312031325
:10067000A100A10B392B00008312031307110800FE
:10068000F40074080F39F2007408F039F300831293
:10069000031307147308F10004300310F10CFF3E3C
:1006A000031D4D2B71080A128A11E7230A128A11C1
:1006B0008312031307150D30F100F10B5D2B83122C
:1006C0000313071172080A128A11E7230A128A110A
:1006D0008312031307150D30F100F10B6D2B8312FC
:1006E00003130711080083120313A700A501A60135
:1006F0008E2B2508270784000A128A1100220A126D
:100700008A110A128A1107230A128A1101308312F0
:100710000313A5070318A60A0030A6072508270714
:1007200084000A128A1100220A128A11003A031D5B
:100730009A2B9B2B792B08000A128A115F240A122C
:100740008A1183120313A401A40A01300A128A1128
:1007500057210A128A112F300A128A1173230A12A2
:100760008A1183120313A401A40A02300A128A1107
:1007700057210A128A1139300A128A1173230A1278
:100780008A110800F500F601F701D92B76087507E4
:1007900084000A128A1100220A128A110A128A118E
:1007A00040230A128A110130F6070318F70A0030B5
:1007B000F7077608750784000A128A1100220A12C8
:1007C0008A11003A031DE52BE62BC62B0800F0002A
:1007D000701CEB2BEC2BF02B831203130716F32B5F
:1007E000831203130712F01CF62BF72BF92B871635
:1007F000FA2B8712701DFD2BFE2B002C0717012CE6
:100800000713F01D042C052C072C8717082C8713C1
:10081000080083120313A000201C0F2C102C122C94
:100820000716132C0712A01C162C172C192C871630
:100830001A2C8712201D1D2C1E2C202C0717212C52
:100840000713A01D242C252C272C8717282C871351
:10085000080083120313A300071023080A128A1149
:1008600009240A128A118312031307150630831212
:100870000313A2002F30A100A10B3C2CA20B3C2C97
:10088000412C8312031307110800F3008312031392
:10089000071073080A128A11E7230A128A118312B9
:1008A000031307150630F2003030F100F10B562C1F
:1008B000F20B562C000083120313071108000030BE
:1008C0000A128A1129240A128A1101300A128A1185
:1008D00029240A128A11080000300A128A114524BC
:1008E0000A128A1101300A128A1145240A128A1149
:0208F0000800FE
:02400E00F23F7F
:00000001FF
