:020000040000FA
:060000000A128A110C280F
:10000800FE00030EF4000A08F5000A128A11EE2910
:100018000A128A110F28F601F70183120313AA01A5
:10002800AB0183010A128A111928FF3083160313C2
:10003800850003308600870188013F3081008312E4
:10004800031385018601870188018B170B170B168F
:100058000A128A11B6200A128A110A128A118A22F1
:100068000A128A1183120313A401A40A01300A1286
:100078008A1119210A128A110F300A128A119E2137
:100088000A128A1183120313A401A40A02300A1265
:100098008A1119210A128A1119300A128A119E210D
:1000A8000A128A11831203138816AA01AB0183125C
:1000B80003132A082B040319622863286428B32829
:1000C80088138618682869285B280A128A118A22E8
:1000D8000A128A1183120313A401A40A01300A1216
:1000E8008A1119210A128A1101300A128A119E21D5
:1000F8000A128A1187282A082B04031984288528BC
:100108008628B328881783120313861C8C288D2809
:100118007F280A128A118A220A128A11831203136B
:10012800A401A40A01300A128A1119210A128A119B
:100138000F300A128A119E210A128A1183120313A0
:10014800A401A40A02300A128A1119210A128A117A
:1001580019300A128A119E210A128A115B280A1282
:100168008A110C2800300A128A1134220A128A11C4
:100178001A3083120313A500F730A400A40BC22879
:10018800A50BC228C72803300A128A1154220A1262
:100198008A11073083120313A5007C30A400A40B36
:1001A800D328A50BD328000003300A128A11542241
:1001B8000A128A110F3083120313A5004730A400D6
:1001C800A40BE428A50BE42803300A128A11542250
:1001D8000A128A1102300A128A1154220A128A114A
:1001E80002300A128A1154220A128A1108300A129D
:1001F8008A1154220A128A1100300A128A115422D2
:100208000A128A110C300A128A1154220A128A110F
:1002180000300A128A1154220A128A1106300A1270
:100228008A1154220A128A11080083120313A600A5
:100238002603031D20292129402924087F3EA900DF
:100248002908A50004300310A50CFF3E031D27292B
:100258002508A70029080F39A80027080A128A11BB
:1002680054220A128A118312031328080A128A11C7
:1002780054220A128A11642902302606031D4529D0
:10028800462964292408BF3EA9002908A50004308E
:100298000310A50CFF3E031D4C292508A7002908BB
:1002A8000F39A80027080A128A1154220A128A1143
:1002B8008312031328080A128A1154220A128A1177
:1002C800080083120313A40024080F39A20024088D
:1002D800F039A30007142308A10004300310A10C6F
:1002E800FF3E031D722921080A128A1134220A12BC
:1002F8008A118312031307150C3083120313A1000C
:10030800A10B8429000083120313071122080A1283
:100318008A1134220A128A118312031307150C302A
:1003280083120313A100A10B972900008312031362
:100338000711080083120313A700A501A601B92914
:100348002508270784000A128A11C7210A128A1170
:100358000A128A1165210A128A11013083120313C5
:10036800A5070318A60A0030A60725082707840052
:100378000A128A11C7210A128A11003A031DC529D7
:10038800C629A429080001308A000408840A8207C3
:100398000034443445345334503445344A344134B9
:1003A8004E3444344F342E342E342E3400345334E7
:1003B800493447344D344134203444344F3447347D
:1003C80000344734523449344E3444345334453479
:1003D80054340034831203130C1CF329F429FA292A
:1003E8000C10DC308E000B308F000B2A8B1CFD2983
:1003F800FE290B2A8B1088130A128A1197220A12D7
:100408008A11013083120313AA000030AB0075086B
:100418008A00740E8300FE0E7E0E0900F000701C28
:10042800162A172A1B2A8312031307161E2A831259
:1004380003130712F01C212A222A242A8716252AA8
:100448008712701D282A292A2B2A07172C2A0713F6
:10045800F01D2F2A302A322A8717332A87130800DB
:1004680083120313A000201C3A2A3B2A3D2A0716B0
:100478003E2A0712A01C412A422A442A8716452AE6
:100488008712201D482A492A4B2A07174C2A071386
:10049800A01D4F2A502A522A8717532A871308006B
:1004A80083120313A300071023080A128A113422A7
:1004B8000A128A11831203130715063083120313D5
:1004C800A2002F30A100A10B672AA20B672A6C2A71
:1004D8008312031307110800F30083120313071094
:1004E80073080A128A1112220A128A11831203133C
:1004F80007150630F2003030F100F10B812AF20BBB
:10050800812A0000831203130711080000300A1221
:100518008A1154220A128A1101300A128A115422AD
:100528000A128A11080000300A128A1170220A126F
:100538008A1101300A128A1170220A128A110800DF
:02400E00F23F7F
:00000001FF
