:020000040000FA
:060000000A128A110C280F
:10000800FE00030EF2000A08F3000A128A112D28D6
:100018000A128A110F28F401F50183010A128A11C4
:100028001528FF30831603138500013086008113DD
:1000380083120313850186018B170B17831603138D
:100048000C171F109F101F119F1129280A128A11BF
:100058000C28831203130C1F322833283B280C1357
:100068001E08F000F1017008F4007108F50073082B
:0C0078008A00720E8300FE0E7E0E09004E
:02400E00F23F7F
:00000001FF
