:020000040000FA
:060000000A128A1110280B
:10000800FE00030EFA000408FB000A08FC007F0843
:10001800FD000A128A11D92A0A128A11132883129A
:100028000313AD01AE01AF01B001B101B201B301DB
:10003800B401B501B601B701B80183010A128A11EA
:100048002528FF30831603138500073086008701B3
:1000580088013F30810083120313850186018701DF
:1000680088018B170B170B16831603130C148312B6
:100078000313901010169016DC308E000B308F0092
:10008800831603131F109F101F119F118312031350
:100098001F139F13831603139F139E0183120313C9
:1000A8009E011F140A128A1176220A128A110A1254
:1000B8008A11D2240A128A11831203138816AF01F7
:1000C800B001B101B201742886186B286C28742815
:1000D800AF01B0010A128A11D2240A128A117428B7
:1000E800831203132F03300403197B287C28682804
:1000F80006197F288028D728B101B2010A128A116F
:1001080095250A128A1183120313A401A40A013047
:100118000A128A1131230A128A1122300A128A110C
:10012800A9240A128A118312031310149C28881711
:1001380031083204031DA128A228A8282F0830045A
:100148000319A728A8289B2888132F083004031D03
:10015800AE28AF28D7280A128A1195250A128A11C3
:1001680083120313A401A40A01300A128A1131234D
:100178000A128A1112300A128A11A9240A128A1143
:100188000B3083120313AC002630AB005D30AA009D
:10019800AA0BCC28AB0BCC28AC0BCC280A128A11A2
:1001A800D2240A128A110A128A1100240A128A1108
:1001B800831203132108803AFF0080307F02031D59
:1001C800E728343020020318EA28EB2880290A128D
:1001D8008A11C3230A128A11831203132108803A51
:1001E800FF0080307F02031DFB2834302002031CEF
:1001F800FE28FF288029831203132F083004031DCB
:100208000629072980290A128A1195250A128A11B6
:1002180083120313A401A40A01300A128A1131239C
:100228000A128A1122300A128A11A9240A128A1182
:100238002729831203132F033004031D242925299A
:1002480026294F2988170A128A1100240A128A11AE
:10025800831203132108803AFF0080307F02031DB8
:100268003729CD30200203183A293B294F290A1291
:100278008A11C3230A128A11831203132108803AB0
:10028800FF0080307F02031D4B2934302002031801
:100298004E294F291D29831203132F083004031DEB
:1002A80056295729802988130A128A1195250A1276
:1002B8008A1183120313A401A40A01300A128A11B5
:1002C80031230A128A1112300A128A11A9240A1239
:1002D8008A110B3083120313AC002630AB005D305B
:1002E800AA00AA0B7529AB0B7529AC0B75290A1244
:1002F8008A11D2240A128A110A128A11C3230A12F5
:100308008A11831203132108803AFF0080307F028C
:10031800031D902934302002031893299429742846
:1003280083120313B101B20108170A128A11952525
:100338000A128A1183120313A401A40A01300A12B3
:100348008A1131230A128A1101300A128A11A9244A
:100358000A128A1183120313A401A40A02300A1292
:100368008A1131230A128A1155300A128A11A924D6
:100378000A128A11831203131014DE292F03300482
:10038800031DC729C829C929EA290A128A11C323C2
:100398000A128A11831203132108803AFF00803061
:1003A8007F02031DD92934302002031CDC29DD29F2
:1003B800DE29EA298312031331083204031DE529D3
:1003C800E629EA290619E929EA29C2298312031329
:1003D80008132F083004031DF229F32974280A1280
:1003E8008A11D2240A128A110B3083120313AC002B
:1003F8002630AB005D30AA00AA0B002AAB0B002AFE
:10040800AC0B002A74280A128A11102802308A00BC
:100418000408840A820700344534533454344F3472
:10042800513455344534203445344D3420344E3419
:100438004934563445344C3400345234413443340E
:1004480041344F34203443344F344C344F344334E4
:100458004134443441342E34003444344534533424
:10046800503445344A3441344E3444344F342E34B5
:100478002E342E340034463455344E344334493403
:100488004F344E3441344D3445344E3454344F3463
:10049800003449344E3454344534523452344F3491
:1004A8004D345034493444344F340034533449348F
:1004B80047344D344134203444344F3447340034C5
:1004C80042344134493458344F342E342E342E3487
:1004D80000344734523449344E3444345334453468
:1004E8005434003400300A128A113F250A128A1146
:1004F8001A3083120313A500F730A400A40B822A34
:10050800A50B822A872A03300A128A115F250A124C
:100518008A11073083120313A5007C30A400A40BB2
:10052800932AA50B932A000003300A128A115F252B
:100538000A128A110F3083120313A5004730A40052
:10054800A40BA42AA50BA42A03300A128A115F253A
:100558000A128A1102300A128A115F250A128A11B8
:1005680002300A128A115F250A128A1108300A120B
:100578008A115F250A128A1100300A128A115F2532
:100588000A128A110C300A128A115F250A128A117E
:1005980000300A128A115F250A128A1106300A12DF
:1005A8008A115F250A128A110800831203130C1C92
:1005B800DE2ADF2AF92A0C10DC308E000B308F007F
:1005C8000130AD070318AE0A0030AE0708302D061B
:1005D8002E04031DF02AF12A262B1010AD01AE01BE
:1005E8000130B1000030B200262B8B1CFC2AFD2AFA
:1005F800262B8B1088130A128A11A2250A128A1137
:10060800F401F40A01300A128A117D230A128A11B0
:1006180030300A128A11F8240A128A11F401F40AF5
:1006280002300A128A117D230A128A113E300A12F8
:100638008A11F8240A128A11013083120313AF00B9
:100648000030B0007D08FF007C088A007B08840029
:100658007A0E8300FE0E7E0E090083120313A60095
:100668002603031D382B392B582B24087F3EA9005D
:100678002908A50004300310A50CFF3E031D3F2BDD
:100688002508A70029080F39A80027080A128A1187
:100698005F250A128A118312031328080A128A1185
:1006A8005F250A128A117C2B02302606031D5D2B5A
:1006B8005E2B7C2B2408BF3EA9002908A500043026
:1006C8000310A50CFF3E031D642B2508A70029086D
:1006D8000F39A80027080A128A115F250A128A1101
:1006E8008312031328080A128A115F250A128A1135
:1006F8000800F6007603031D822B832BA02B7408B9
:100708007F3EF9007908F50004300310F50CFF3E30
:10071800031D892B7508F70079080F39F800770849
:100728000A128A117B250A128A1178080A128A117C
:100738007B250A128A11C22B02307606031DA52BCF
:10074800A62BC22B7408BF3EF9007908F5000430C7
:100758000310F50CFF3E031DAC2B7508F700790854
:100768000F39F80077080A128A117B250A128A11B4
:1007780078080A128A117B250A128A1108000230A9
:1007880083120313A200A20BC72B000083120313CA
:100798009F11023083120313A200A20BD12B000079
:1007A800831203131F12023083120313A200A20B39
:1007B800DB2B0000831203139F12023083120313F2
:1007C800A200A20BE52B0000831203131F150230B1
:1007D80083120313A200A20BEF2B00008312031352
:1007E8001E08A200A3012208A4002308A5002508CA
:1007F800A1002408A0000800023083120313A200FD
:10080800A20B042C0000831203139F1502308312DD
:100818000313A200A20B0E2C0000831203131F1255
:10082800023083120313A200A20B182C00008312BB
:1008380003139F12023083120313A200A20B222C6F
:100848000000831203131F15023083120313A20042
:10085800A20B2C2C0000831203131E08A200A30174
:100868002208A4002308A5002508A1002408A00048
:10087800080083120313A40024080F39A2002408D7
:10088800F039A30007142308A10004300310A10CB9
:10089800FF3E031D4A2C21080A128A113F250A121D
:1008A8008A118312031307150C3083120313A10056
:1008B800A10B5C2C000083120313071122080A12F3
:1008C8008A113F250A128A118312031307150C3067
:1008D80083120313A100A10B6F2C000083120313D2
:1008E80007110800F40074080F39F2007408F03991
:1008F800F3008312031307147308F1000430031084
:10090800F10CFF3E031D832C71080A128A111D2564
:100918000A128A118312031307150D30F100F10B27
:10092800932C83120313071172080A128A111D25CA
:100938000A128A118312031307150D30F100F10B07
:10094800A32C831203130711080083120313A700B3
:10095800A501A601C42C2508270784000A128A11BC
:100968000A220A128A110A128A113D240A128A11CD
:10097800013083120313A5070318A60A0030A6073F
:100988002508270784000A128A110A220A128A11E6
:10099800003A031DD02CD12CAF2C08000A128A1162
:1009A80095250A128A1183120313A401A40A01309F
:1009B8000A128A1131230A128A114B300A128A113B
:1009C800A9240A128A1183120313A401A40A02306B
:1009D8000A128A1131230A128A115E300A128A1108
:1009E800A9240A128A110800F500F601F7010F2D53
:1009F8007608750784000A128A110A220A128A11D7
:100A08000A128A1176240A128A110130F60703188D
:100A1800F70A0030F7077608750784000A128A116A
:100A28000A220A128A11003A031D1B2D1C2DFC2CC8
:100A38000800F000701C212D222D262D831203138F
:100A48000716292D831203130712F01C2C2D2D2DA8
:100A58002F2D8716302D8712701D332D342D362DEE
:100A68000717372D0713F01D3A2D3B2D3D2D8717FE
:100A78003E2D8713080083120313A000201C452D68
:100A8800462D482D0716492D0712A01C4C2D4D2D1B
:100A98004F2D8716502D8712201D532D542D562D5E
:100AA8000717572D0713A01D5A2D5B2D5D2D87178E
:100AB8005E2D8713080083120313A3000710230871
:100AC8000A128A113F250A128A1183120313071585
:100AD800063083120313A2002F30A100A10B722D40
:100AE800A20B722D772D8312031307110800F30050
:100AF80083120313071073080A128A111D250A129C
:100B08008A118312031307150630F2003030F10002
:100B1800F10B8C2DF20B8C2D00008312031307119F
:100B2800080000300A128A115F250A128A11013062
:100B38000A128A115F250A128A11080000300A1267
:100B48008A117B250A128A1101300A128A117B2523
:060B58000A128A110800D8
:02400E00F23F7F
:00000001FF
