:020000040000FA
:060000000A128A110C280F
:10000800FE00030EF4000A08F5000A128A11EC2912
:100018000A128A110F28F601F70183120313AA01A5
:10002800AB0183010A128A111928FF3083160313C2
:10003800850003308600870188013F3081008312E4
:10004800031385018601870188018B170B170B168F
:100058000A128A11B4200A128A110A128A118822F5
:100068000A128A1183120313A401A40A01300A1286
:100078008A1117210A128A110F300A128A119C213B
:100088000A128A1183120313A401A40A02300A1265
:100098008A1117210A128A1119300A128A119C2111
:1000A8000A128A11831203138816831203132A086B
:1000B8002B040319602861286228B1288813861840
:1000C8006628672859280A128A1188220A128A1172
:1000D80083120313A401A40A01300A128A111721FA
:1000E8000A128A1101300A128A119C210A128A11F5
:1000F80085282A082B040319822883288428B128F4
:10010800881783120313861C8A288B287D280A12D5
:100118008A1188220A128A1183120313A401A40ADD
:1001280001300A128A1117210A128A110F300A1295
:100138008A119C210A128A1183120313A401A40AAA
:1001480002300A128A1117210A128A1119300A126A
:100158008A119C210A128A1159280A128A110C281C
:1001680000300A128A1132220A128A111A308312B6
:100178000313A500F730A400A40BC028A50BC028C2
:10018800C52803300A128A1152220A128A1107302E
:1001980083120313A5007C30A400A40BD128A50B5F
:1001A800D128000003300A128A1152220A128A1139
:1001B8000F3083120313A5004730A400A40BE228D4
:1001C800A50BE22803300A128A1152220A128A1158
:1001D80002300A128A1152220A128A1102300A12B5
:1001E8008A1152220A128A1108300A128A115222DE
:1001F8000A128A1100300A128A1152220A128A112E
:100208000C300A128A1152220A128A1100300A127C
:100218008A1152220A128A1106300A128A115222AF
:100228000A128A11080083120313A6002603031D6D
:100238001E291F293E2924087F3EA9002908A50058
:1002480004300310A50CFF3E031D25292508A7002F
:1002580029080F39A80027080A128A1152220A12FF
:100268008A118312031328080A128A1152220A12C9
:100278008A11622902302606031D4329442962296E
:100288002408BF3EA9002908A50004300310A50CC6
:10029800FF3E031D4A292508A70029080F39A80091
:1002A80027080A128A1152220A128A11831203138A
:1002B80028080A128A1152220A128A110800831287
:1002C8000313A40024080F39A2002408F039A3005E
:1002D80007142308A10004300310A10CFF3E031DDE
:1002E800702921080A128A1132220A128A118312ED
:1002F800031307150C3083120313A100A10B8229E5
:10030800000083120313071122080A128A113222ED
:100318000A128A118312031307150C308312031370
:10032800A100A10B952900008312031307110800EF
:1003380083120313A700A501A601B72925082707DB
:1003480084000A128A11C5210A128A110A128A1116
:1003580063210A128A11013083120313A5070318B7
:10036800A60A0030A6072508270784000A128A1162
:10037800C5210A128A11003A031DC329C429A229DA
:10038800080001308A000408840A820700344434D3
:1003980045345334503445344A3441344E3444346B
:1003A8004F342E342E342E340034533449344734E9
:1003B8004D344134203444344F34473400344734C6
:1003C800523449344E34443453344534543400346C
:1003D800831203130C1CF129F229F8290C10B030F0
:1003E8008E003C308F00092A8B1CFB29FC29092A26
:1003F8008B1088130A128A1195220A128A11013069
:1004080083120313AA000030AB0075088A00740E2B
:100418008300FE0E7E0E0900F000701C142A152AB7
:10042800192A8312031307161C2A831203130712AF
:10043800F01C1F2A202A222A8716232A8712701DB9
:10044800262A272A292A07172A2A0713F01D2D2AC0
:100458002E2A302A8717312A87130800831203139C
:10046800A000201C382A392A3B2A07163C2A0712E2
:10047800A01C3F2A402A422A8716432A8712201D99
:10048800462A472A492A07174A2A0713A01D4D2A30
:100498004E2A502A8717512A8713080083120313FC
:1004A800A300071023080A128A1132220A128A119D
:1004B800831203130715063083120313A2002F308B
:1004C800A100A10B652AA20B652A6A2A83120313CD
:1004D80007110800F30083120313071073080A12A8
:1004E8008A1110220A128A11831203130715063083
:1004F800F2003030F100F10B7F2AF20B7F2A000066
:10050800831203130711080000300A128A115222BD
:100518000A128A1101300A128A1152220A128A1109
:10052800080000300A128A116E220A128A1101305C
:0C0538000A128A116E220A128A110800B1
:02400E00F23F7F
:00000001FF
