:020000040000FA
:060000000A128A11122809
:10000800FE00030E83120313A0000408A1000A08CF
:10001800A2007F08A3000A128A154E290A128A1123
:100028001528FC01FD0183120313E801E901EA0127
:10003800EB0183160313DB01DC01DD01DE01DF01C7
:10004800E001E101E201E301E40183010A128A15FA
:100058009D2D8312031341088039CB004108C60047
:100068004607D100C01F39283A283B2851145108A7
:1000780003193F2840284F28510A031D44284528C2
:100088004D280030C1000030C0000030BF000030F3
:10009800BE00C01757280030C1000030C000003033
:1000A800BF000030BE0045088039C6004608CB06B0
:1000B8004508C6004607D000C41F63286428652881
:1000C80050145008031969286A287928500A031D12
:1000D8006E286F2877280030C5000030C400003033
:1000E800C3000030C200C41781280030C5000030AA
:1000F800C4000030C3000030C2005008031985282E
:1001080086288B285108031D8A288B2894280030BC
:10011800C1000030C0000030BF000030BE00712BAD
:100128003E08A40044080A168A11CF250A128A112B
:10013800831203132508D7002408D6005608C600E2
:10014800C701C801C9014908CF004808CE004708BF
:10015800CD004608CC005708C600C701C801C90130
:100168004908D5004808D4004708D3004608D200FB
:100178003F08A40043080A168A11CF250A128A11DB
:10018800831203132508D7002408D6005608C60092
:10019800C701C801C9014608CC074708031103185D
:1001A800013E0319D828CD07480803110318013E5A
:1001B8000319DF28CE07490803110318013E031964
:1001C800E628CF075708C600C701C801C901460875
:1001D800D207470803110318013E0319F428D3076F
:1001E800480803110318013E0319FB28D4074908DE
:1001F80003110318013E03190229D5074008A4007A
:1002080042080A168A11CF250A128A11831203138B
:100218002508D7002408D6005608C600C701C8011B
:10022800C9014608CC07470803110318013E031902
:100238001E29CD07480803110318013E0319252973
:10024800CE07490803110318013E03192C29CF07CB
:100258005708C600C701C801C9014608D2074708A0
:1002680003110318013E03193A29D307480803115B
:100278000318013E03194129D4074908031103183B
:10028800013E03194829D5070830C6000310CC0DD4
:10029800CD0DCE0DCF0DC60B4A293F08A40042084C
:1002A8000A168A11CF250A128A1183120313250808
:1002B800D7002408D6005608C6005708C700C8014A
:1002C800C9014608CC07470803110318013E031962
:1002D8006E29CD07480803110318013E0319752933
:1002E800CE07490803110318013E03197C29CF07DB
:1002F8003E08A40043080A168A11CF250A128A115B
:10030800831203132508D7002408D6005608C60010
:100318005708C700C801C9014608CC074708031198
:100328000318013E03199929CD074808031103183A
:10033800013E0319A029CE07490803110318013EFD
:100348000319A729CF070830C6000310CC0DCD0D1F
:10035800CE0DCF0DC60BA9293E08A40042080A16E7
:100368008A11CF250A128A11831203132508D70090
:100378002408D6005608C6005708C700C801C90196
:100388004608CC07470803110318013E0319CD2975
:10039800CD07480803110318013E0319D429CE07D5
:1003A800490803110318013E0319DB29CF073F0849
:1003B800A40044080A168A11CF250A128A1183124A
:1003C80003132508D7002408D6005608C600570886
:1003D800C700C801C9014608D20747080311031816
:1003E800013E0319F829D307480803110318013EF1
:1003F8000319FF29D407490803110318013E0319FB
:10040800062AD5074008A40043080A168A11CF25F2
:100418000A128A11831203132508D7002408D6006C
:100428005608C6005708C700C801C9014608D207C0
:10043800470803110318013E0319232AD307480864
:1004480003110318013E03192A2AD4074908031186
:100458000318013E0319312AD5074008A4004408AF
:100468000A168A11CF250A128A1183120313250846
:10047800D7002408D6005608C6005708C700C80188
:10048800C90108300310C60DC70DC80DC90DFF3EC0
:10049800031D462A4608D207470803110318013EE0
:1004A8000319572AD307480803110318013E0319F3
:1004B8005E2AD407490803110318013E0319652A67
:1004C800D5074C08C6004D08C7004E08C8004F089D
:1004D800C90018300310C90CC80CC70CC60CFF3E65
:1004E800031D6E2A4608D207470803110318013E68
:1004F80003197F2AD307480803110318013E03197B
:10050800862AD407490803110318013E03198D2AC6
:10051800D5070830C6000310CC0DCD0DCE0DCF0D7C
:10052800C60B8F2A51085007C600C701C70D4608D9
:10053800823ED60047080318013EFF3ED700C12A75
:100548000130C6000310D20DD30DD40DD50DC60B46
:10055800A62ACF1FB02AB12AB22A52140130C600E7
:100568000310CC0DCD0DCE0DCF0DC60BB42AFF3028
:10057800D6070318D70AFF30D707D41FC42AC52ABD
:10058800A42AD001CF1FC92ACA2AE62AFF304C055F
:10059800C600FF304D05C700FF304E05C8007F304C
:1005A8004F05C90049084804470446040319DD2AD1
:1005B800DE2AE12AD001D00AE62A521CE42AE52ADA
:1005C800E62ADE2A50080319EA2AEB2A1C2B0130F6
:1005D800D207003003180130D30700300318013068
:1005E800D407003003180130D507551CFC2AFD2A12
:1005F8001C2B5208C6005308C7005408C8005508E9
:10060800C9000130CA00490DC90CC80CC70CC60C7A
:10061800CA0B072B4908D5004808D4004708D3005F
:100628004608D2000130D6070318D70A0030D7078A
:100638005708803AFF0080307F02031D252BFF30CA
:100648005602031C282B292B342B7F3083120313CB
:10065800D5008030D4000030D3000030D200652BA4
:10066800831203135708803AFF0080307F02031D6E
:100678003F2B013056020318422B432B4F2B0030DF
:1006880083120313D5000030D4000030D3000030AB
:10069800D200CB01652B831203135608D100FF301B
:1006A800D205FF30D3057F30D4050030D505511C65
:1006B8005E2B5F2B602BD4175108C6000310460C25
:1006C800D5004B08C6004608D5045508C100540893
:1006D800C0005308BF005208BE000800831203136D
:1006E8005F08803983160313A400831203135F087D
:1006F800E000600783160313AB0083120313DE1FA9
:10070800862B872B8A2B831603132B14831603132C
:100718002B080319902B912BA42B2B0A031D952B27
:10072800962BA02B003083120313DF000030DE006D
:100738000030DD000030DC008312DE17DF01AE2B55
:10074800003083120313DF000030DE000030DD00CC
:100758000030DC005B088039E00060088316031372
:10076800A406831203135B08E000600783160313D3
:10077800AC0083120313DA1FC22BC32BC62B8316BC
:1007880003132C14831603132C080319CC2BCD2B1D
:10079800E02B2C0A031DD12BD22BDC2B003083122B
:1007A8000313DB000030DA000030D9000030D80035
:1007B8008312DA17DB01EA2B003083120313DB0004
:1007C8000030DA000030D9000030D8005B085A0445
:1007D80059045804031DF12BF22B0F2C0030DF00B5
:1007E8000030DE000030DD000030DC008030DE0448
:1007F8007F30DF0483160313240883120313E000F9
:100808006008DF045F08DB005E08DA005D08D900D5
:100818005C08D800032E831603132B08031D152C20
:10082800162C212C003083120313DB000030DA0071
:100838000030D9000030D800032E2B088312031390
:10084800E000E1016108E300831603132C0883121A
:1008580003136002E200031CE30362087F3E831671
:100868000313A5008312031363080318013E003E17
:1008780083160313A600831203135F08831603135A
:10088800A300831203135E0883160313A2008312C6
:1008980003135D0883160313A100831203135C0876
:1008A80083160313A000003083120313DF00003007
:1008B800DE000030DD000030DC000030831603135A
:1008C800AA000030A9000030A8000030A700AC0141
:1008D800F32C2C080319712C722CA12C01308312D3
:1008E8000313E000031083160313A00DA10DA20D3E
:1008F800A30D83120313E00B762C0130E0000310E4
:10090800DC0DDD0DDE0DDF0DE00B832C83160313EC
:10091800AA1F8F2C902C932C831203135C14013084
:100928008312E000031083160313A70DA80DA90D69
:10093800AA0D83120313E00B962C83125B0883160F
:1009480003132302031DBE2C831203135A088316B4
:1009580003132202031DBE2C8312031359088316A6
:1009680003132102031DBE2C831203135808831698
:1009780003132002031CC12CC22CEB2C2A17831250
:100988000313580883160313A0028312031359088C
:10099800031C590FD02CD32C83160313A1028312E6
:1009A80003135A08031C5A0FDA2CDD2C8316031381
:1009B800A202831203135B08031C5B0FE42CE72CD1
:1009C80083160313A3028312031383160313013040
:1009D80083120313E000600883160313AC071A3070
:1009E8002C02031CF82CF92C6D2C2308220421045A
:1009F80020040319002D012D2B2D27142B2D013038
:100A0800E0000310DC0DDD0DDE0DDF0DE00B052D24
:100A180083160313AA1F112D122D152D83120313EC
:100A28005C1401308312E000031083160313A70D32
:100A3800A80DA90DAA0D83120313E00B182DFF3082
:100A480083160313A5070318A60AFF30A607831207
:100A58000313DE1F302D312D032D83160313AC0134
:100A6800AA1F372D382D642DFF3027058312031355
:100A7800E000FF3083160313280583120313E100F7
:100A8800FF3083160313290583120313E2007F3016
:100A9800831603132A0583120313E3006308620411
:100AA800610460040319592D5A2D5F2D8316031311
:100AB800AC01AC0A642D5C1C622D632D642D5A2D8B
:100AC800831603132C0803196A2D6B2DA02D0130F2
:100AD80083120313DC07003003180130DD070030F0
:100AE80003180130DE07003003180130DF075F1CF0
:100AF8007E2D7F2DA02D5C08E0005D08E1005E08DA
:100B0800E2005F08E3000130E400630DE30CE20C4F
:100B1800E10CE00CE40B892D6308DF006208DE00BD
:100B28006108DD006008DC00013083160313A507A7
:100B38000318A60A0030A607831603132608803A6E
:100B4800FF0080307F02031DAB2DFF302502031C00
:100B5800AE2DAF2DBF2DFF3083160313A500003037
:100B6800A600003083120313DF000030DE000030DF
:100B7800DD000030DC00831603132608803AFF00EE
:100B880080307F02031DCA2D013025020318CD2DA8
:100B9800CE2DDF2D83160313A501A6010030831285
:100BA8000313DF000030DE000030DD000030DC0021
:100BB80083160313A401831603132508AB002B1C0B
:100BC800E62DE72DEB2D83120313DE17F12D7F3071
:100BD80083120313E0006008DE05831603132B0855
:100BE80083120313E0000310600CDF008316031365
:100BF800240883120313E0006008DF04062C0800B1
:100C080083120313BD003330B800CB2E25303E06C7
:100C180003190F2E102E1A2E3D0884003E08831348
:100C280080000130B5003508BD07CB2EB901013071
:100C3800B207FF30320784000A128A150A200A1206
:100C48008A11BE00B500B6013608003A03192D2EE8
:100C5800102E3508003A0319DB2E643A0319382E92
:100C68000D3A0319382E102E380884008313000813
:100C7800BB00840A0008BC000230B5003508B8077C
:100C8800BC1F472E482E512E0330B5003508B90435
:100C9800BB09BC09BB0A0319BC0ABE01BE0A3E084F
:100CA800B5003507013E84000A128A150A200A1287
:100CB8008A11B6000A128A150A200A128A11B70088
:100CC80037083C02031D6A2E36083B0203186D2EB6
:100CD8006E2E6F2E792E0130B5003508BE0705300F
:100CE8003E06031D782E792E532E39080339031931
:100CF8007E2E7F2E882E3D0884002D3083138000A1
:100D08000130B5003508BD073E08BA00C22E0A30CA
:100D1800AC000030AD003A08B5003507013E84004C
:100D28000A128A150A200A128A11A4000A128A15C0
:100D38000A200A128A11A5003C08A7003B08A60051
:100D48000A168A116E270A128A11831203132508BC
:100D5800AF002408AE000A168A1164260A128A1106
:100D6800831203132C08303EBE003D0884003E0861
:100D7800831380000130B5003508BD07FF30B5008A
:100D88003508BA073A0A031DCA2ECB2E8B2E01301E
:100D9800B207FF30320784000A128A150A200A12A5
:100DA8008A11BE003E08031DDA2EDB2E0A2E3D08EE
:100DB800840083138001080083120313AC002C08FD
:100DC8000319E72EE82EFC2EA71FEB2EEC2EFC2E87
:100DD8002409AE002509AF002609B0002709B10093
:100DE800AE0A0319AF0A0319B00A0319B10A042F8E
:100DF8002708B1002608B0002508AF002408AE0077
:100E08002708260425042404031D0B2F0C2F152F57
:100E18000030A7000030A6000030A5000030A40074
:100E2800992F9630AD00252F0130A8002808AD076E
:100E380001300310B10CB00CAF0CAE0CFF3E031D1B
:100E48001D2FFE303105031D2A2F2B2F182F472F5A
:100E58000130A8002808AD070130AE07003003189C
:100E68000130AF07003003180130B0070030031815
:100E78000130B10701300310B10CB00CAF0CAE0C4F
:100E8800FF3E031D3F2FFF303105031D4C2F4D2F13
:100E98002C2F592F0130AD020130A8000310AE0DE0
:100EA800AF0DB00DB10DA80B522FB01B5C2F5D2FED
:100EB800632F02302D020318622F632F4E2F2D1837
:100EC800662F672F6F2FFF30AE05FF30AF057F30DD
:100ED800B005FF30B1050310AD0C2D08A800A9011D
:100EE800AA01AB0118300310A80DA90DAA0DAB0D6E
:100EF800FF3E031D772F2808AE042908AF042A08EF
:100F0800B0042B08B1042C0803198B2F8C2F912FB8
:100F1800A71F8F2F902F912FB1173108A7003008E6
:100F2800A6002F08A5002E08A400080000300A1605
:100F38008A118D250A128A111A3083120313A90007
:100F4800F730A800A80BA62FA90BA62FAB2F0330AC
:100F58000A168A1171250A128A110730831203139F
:100F6800A9007C30A800A80BB72FA90BB72F000049
:100F780003300A168A1171250A128A110F3083125A
:100F88000313A9004730A800A80BC82FA90BC82F26
:100F980003300A168A1171250A128A1102300A16BC
:100FA8008A1171250A128A1102300A168A117125CE
:100FB8000A128A1108300A168A1171250A128A1132
:100FC80000300A168A1171250A128A110C300A1685
:100FD8008A1171250A128A1100300A168A117125A0
:100FE8000A128A1106300A168A1171250A128A1104
:020FF8000800EF
:10100000FF1B0A2883137F1883170008840A03191B
:10101000FF0A080008308A000408840A82070034A6
:10102000013400340A34003464340034E8340334C6
:10103000103427344534533454344F3451345534F8
:101040004534203445344D3420344E3449345634FC
:1010500045344C34003452344134433441344F34F9
:10106000203443344F344C344F34433441344434CB
:1010700041342E340034433461346D346234753479
:101080006334613420343D342034253464342534D1
:10109000253400344534733474346F34713475340A
:1010A000653420343D3420342534643425342534EB
:1010B0000034443445345334503445344A34413494
:1010C0004E3444344F342E342E342E3400344634CF
:1010D00055344E34433449344F344E3441344D3416
:1010E00045344E3454344F34003449344E3454343F
:1010F0004534523452344F344D34503449344434EE
:101100004F34003442344134493458344F342E344F
:061110002E342E340034E1
:1011260000300A168A1171250A128A1501300A162C
:101136008A1171250A128A150800023083120313D8
:10114600B600B60BA4280000831203139F150230C5
:1011560083120313B600B60BAE28000083120313E6
:101166001F12023083120313B600B60BB828000014
:10117600831203139F12023083120313B600B60BB9
:10118600C2280000831203131F15023083120313B3
:10119600B600B60BCC280000831203131E08B60057
:1011A600B701B801B9013908A7003808A600370801
:1011B600A5003608A40000300A128A11E0260A1299
:1011C6008A15831203132708BD002608BC002508CC
:1011D600BB002408BA003D08B5003C08B4003B0833
:1011E600B3003A08B2000800023083120313B600B7
:1011F600B60BFB280000831203139F1102308312E3
:101206000313B600B60B05290000831203131F1241
:10121600023083120313B600B60B0F2900008312A7
:1012260003139F12023083120313B600B60B19295B
:101236000000831203131F15023083120313B60036
:10124600B60B23290000831203131E08B600B7014C
:10125600B801B9013908A7003808A6003708A50063
:101266003608A40000300A128A11E0260A128A15EE
:10127600831203132708BD002608BC002508BB00FF
:101286002408BA003D08B5003C08B4003B08B3008A
:101296003A08B20008000C1C512952296F290C107B
:1012A600DC308E000B308F0064000130FC07031821
:1012B600FD0A0030FD0708307C067D04031D642905
:1012C6006529A329831203131010FC01FD010130C7
:1012D600EA000030EB00A3298B1C72297329A3298D
:1012E6008B10881364000A168A114A250A128A1579
:1012F600F401F40A01300A168A11E2260A128A1546
:101306005830F5008030F6000A168A11A0260A1217
:101316008A15F401F40A02300A168A11E2260A1224
:101326008A156630F5008030F6000A168A11A02666
:101336000A128A15013083120313E8000030E9000F
:10134600831203132308FF0022088A002108840061
:10135600200E8300FE0E7E0E090083160313BA01CB
:10136600B61FB629B729BE29B509B609B50A0319A4
:10137600B60ABA01BA0AB81FC129C229CF29B709C4
:10138600B809B70A0319B80A013083120313E70034
:10139600670883160313BA06BB01BC013508360479
:1013A6000319D629D729122AB901B90AE929013020
:1013B6000310B50DB60DFF3E031DDB290130831268
:1013C6000313E700670883160313B907B61FEC2952
:1013D600ED29DA2901300310BB0DBC0DFF3E031DBC
:1013E600EE2936083802031DFA2935083702031C90
:1013F600FD29FE29052A3508B7023608031CB8035D
:10140600B8023B1401300310B60CB50CFF3E031DA9
:10141600062A0130B902031D112A122AED293A08BB
:101426000319162A172A1C2ABB09BC09BB0A031969
:10143600BC0A3C08B6003B08B5000800031083163A
:1014460003132F0D300D83120313E6006608031DE8
:101456002D2A2E2A392A003083160313B0000030B5
:10146600AF000030AE000030AD00AE2A8316031385
:101476002D08B1002E08B2002F08B3003008B400C2
:101486001F300310B40CB30CB20CB10CFF3E031D9D
:10149600442A310883120313E50083160313AF179A
:1014A600FF30AD05FF30AE05FF30AF050030B005AB
:1014B600963083120313E602E61F622A632A812A04
:1014C6006608803A973E0318692A6A2A6B2A2E2AEA
:1014D6000130031083160313B00CAF0CAE0CAD0C29
:1014E600FF3E031D6C2A0130B1003108831203133D
:1014F600E607031D7F2A802A6B2A9C2A2030660273
:10150600031C862A872A972A2E2A0130831603135C
:10151600B1000310AD0DAE0DAF0DB00DB10B8C2AA1
:10152600013083120313E6026608031D9B2A9C2AD8
:10153600882A65080319A02AA12AAE2A831603134E
:10154600AD09AE09AF09B009AD0A0319AE0A031910
:10155600AF0A0319B00A08000030831203133E05D0
:10156600C60000303F05C70080304005C8007F3008
:101576004105C9004908480447044604031DC42A16
:10158600C52ACD2A0030C1000030C0000030BF009F
:101596000030BE0000304205C60000304305C700DB
:1015A60080304405C8007F304505C9004908480415
:1015B60047044604031DE02AE12AE92A0030C50053
:1015C6000030C4000030C3000030C200C11FEC2A46
:1015D600ED2A112B0030C6000030C7000030C800CD
:1015E6008030C9003E08C6023F08031C3F0FFC2A94
:1015F600FD2AC7024008031C400F022B032BC8021A
:101606004108031C410F082B092BC9024908C100D8
:101616004808C0004708BF004608BE00C51F142B77
:10162600152B392B0030C6000030C7000030C8002B
:101636008030C9004208C6024308031C430F242B0E
:10164600252BC7024408031C440F2A2B2B2BC80248
:101656004508031C450F302B312BC9024908C5002C
:101666004808C4004708C3004608C2008030C106C7
:101676008030C50645084102031D4B2B4408400235
:10168600031D4B2B43083F02031D4B2B42083E0212
:1016960003184E2B4F2B512B0310522B031408000B
:1016A600FF3083160313B5000030B6000A128A1500
:1016B600A0200A128A15831203133508C5003408C0
:1016C600C4003308C3003208C2004230C100C8302B
:1016D600C0000030BF000030BE000A128A112D2063
:1016E6000A128A1583120313410883160313B000E6
:1016F60083120313400883160313AF0083120313E8
:101706003F0883160313AE00831203133E088316A5
:101716000313AD000A128A1521220A128A158316AE
:1017260003132E08B8002D08B7000A128A15B02137
:101736000A128A15831603133608D5003508D40015
:10174600FF30B5000030B6000A128A15F7200A12DB
:101756008A15831203133508C5003408C4003308FC
:10176600C3003208C2004230C100C830C000003099
:10177600BF000030BE000A128A112D200A128A15F7
:1017860083120313410883160313B0008312031355
:10179600400883160313AF00831203133F08831612
:1017A6000313AE00831203133E0883160313AD0022
:1017B6000A128A1521220A128A15831603132E0885
:1017C600B8002D08B7000A128A15B0210A128A1528
:1017D600831603133608D7003508D6006308640459
:1017E6000319F62BF72BFD2B5B035C04031DFC2B67
:1017F600FD2B232D3B3083120313B20083160313F4
:10180600570883120313B400831603135608831272
:101816000313B300C0300A128A1104260A128A156D
:101826000A128A1593200A128A1583120313A80135
:10183600A80A01300A168A11B4270A128A15C0307E
:1018460083120313A9000030AA000A168A1128275A
:101856000A128A152C3083120313B200831603135F
:10186600550883120313B400831603135408831216
:101876000313B300C0300A128A1104260A128A150D
:1018860083120313A801A80A02300A168A11B42784
:101896000A128A15C03083120313A9000030AA0069
:1018A6000A168A1128270A128A150130831603138D
:1018B600E3000030E4000A128A15A0200A128A15F5
:1018C600831203133508C5003408C4003308C30067
:1018D6003208C2004230C100C830C0000030BF002C
:1018E6000030BE000A128A112D200A128A158312B0
:1018F60003134108DF004008DE003F08DD003E0814
:10190600DC004330DB007F30DA000030D9000030E5
:10191600D8000A128A1172230A128A158312031337
:101926005B0883160313B000831203135A08831649
:101936000313AF0083120313590883160313AE0073
:1019460083120313580883160313AD000A128A156F
:1019560021220A128A15831603132E08E0002D0889
:10196600DF000A128A15F7200A128A15831203135A
:101976003508C5003408C4003308C3003208C20065
:101986004230C100C830C0000030BF000030BE0089
:101996000A128A112D200A128A158312031341088E
:1019A600DF004008DE003F08DD003E08DC00433073
:1019B600DB007F30DA000030D9000030D8000A1290
:1019C6008A1172230A128A15831203135B0883167F
:1019D6000313B000831203135A0883160313AF00D0
:1019E60083120313590883160313AE0083120313DD
:1019F600580883160313AD000A128A1521220A120B
:101A06008A15831603132E08DE002D08DD005B03FE
:101A16005C04031D0F2D102D1E2D0B308316031392
:101A2600BF002630BE005D30BD00BD0B182DBE0BBD
:101A3600182DBF0B182D83160313DB01DC01640080
:101A46008316031355086006031D2B2D54085F06E5
:101A5600031D2E2D2F2D392D57085E06031D352DFE
:101A660056085D060319382D392D9C2D5508E000C2
:101A76005408DF005708DE005608DD003B308312AD
:101A86000313B20083160313570883120313B4001B
:101A960083160313560883120313B300C0300A12C9
:101AA6008A1104260A128A150A128A1593200A1226
:101AB6008A1583120313A801A80A01300A168A118F
:101AC600B4270A128A15C03083120313A900003006
:101AD600AA000A168A1128270A128A152C308312A0
:101AE6000313B20083160313550883120313B400BD
:101AF60083160313540883120313B300C0300A126B
:101B06008A1104260A128A1583120313A801A80A49
:101B160002300A168A11B4270A128A15C0308312B7
:101B26000313A9000030AA000A168A1128270A12F0
:101B36008A150800FF3083160313850007308600D8
:101B4600870188013F3081008312031385018601D6
:101B5600870188018B170B170B16831603130C14BA
:101B660083120313901010169016DC308E000B3083
:101B76008F00831603131F109F101F119F118312CE
:101B860003131F139F13831603139F139E018312C0
:101B960003139E011F148316031381150114811468
:101BA600011564000A128A119A270A128A150A1266
:101BB6008A1553230A128A15831203138816E8011D
:101BC600E901EA01EB0183160313E301E4010A12BA
:101BD6008A1553230A128A156400FC2D8618F42DE3
:101BE600F52DFC2DE801E9010A128A1553230A1284
:101BF6008A1583120313680369040319032E042E3E
:101C0600F12D0619072E082E6C2E6400831203137D
:101C1600EA01EB010A128A1593200A128A15831229
:101C26000313A801A80A01300A168A11B4270A125A
:101C36008A154A3083120313A9008030AA000A16B7
:101C46008A1128270A128A158312031310142C2EC0
:101C560088176A086B04031D312E322E382E680849
:101C660069040319372E382E2B2E88136808690449
:101C7600031D3E2E3F2E6C2E0A128A1593200A1241
:101C86008A1583120313A801A80A01300A168A11BD
:101C9600B4270A128A151C3083120313A900803058
:101CA600AA000A168A1128270A128A150B308316EB
:101CB6000313DA002630D9005D30D800D80B612E28
:101CC600D90B612EDA0B612E0A128A1553230A12DA
:101CD6008A15423083120313C1004C30C000003015
:101CE600BF000030BE000A128A15A0200A128A150B
:101CF600831203133508C5003408C4003308C30033
:101D06003208C2000A128A15AF220A128A15031C6B
:101D16008D2E8E2E572F423083120313C1004C3066
:101D2600C0000030BF000030BE000A128A15F7203E
:101D36000A128A15831203133508C5003408C40035
:101D46003308C3003208C2000A128A15AF220A12EB
:101D56008A150318AF2EB02E572F83120313680867
:101D66006904031DB72EB82E572F64000A128A1570
:101D760093200A128A1583120313A801A80A0130B8
:101D86000A168A11B4270A128A154A3083120313D7
:101D9600A9008030AA000A168A1128270A128A1575
:101DA600DF2E64008312031368036904031DDC2E0F
:101DB600DD2EDE2E212F88170A128A15A0200A1280
:101DC6008A15831203133508C1003408C00033088E
:101DD600BF003208BE004330C5004C30C40000309E
:101DE600C3000030C2000A128A15AF220A128A15F1
:101DF6000318FE2EFF2E212F423083120313C1003B
:101E06004C30C0000030BF000030BE000A128A15F8
:101E1600F7200A128A15831203133508C500340801
:101E2600C4003308C3003208C2000A128A15AF2262
:101E36000A128A15031C202F212FD42E8312031376
:101E460068086904031D282F292F572F88130A12A3
:101E56008A1593200A128A1583120313A801A80A69
:101E660001300A168A11B4270A128A151C30831209
:101E76000313A9008030AA000A168A1128270A121D
:101E86008A150B3083160313DA002630D9005D302D
:101E9600D800D80B4C2FD90B4C2FDA0B4C2F0A122B
:101EA6008A1553230A128A15423083120313C1007E
:101EB6004C30C0000030BF000030BE000A128A1548
:101EC600F7200A128A15831203133508C500340851
:101ED600C4003308C3003208C2000A128A15AF22B2
:101EE6000A128A15031C782F792FEA2D64008316AF
:101EF6000313DB01DC0183120313EA01EB0108176C
:101F06000A128A1593200A128A1583120313A8014E
:101F1600A80A01300A168A11B4270A128A150B304C
:101F260083120313A9008030AA000A168A112827F3
:101F36000A128A1583120313A801A80A02300A1688
:101F46008A11B4270A128A15733083120313A90063
:101F56008030AA000A168A1128270A128A158312C7
:101F660003131014E12F640083120313680369043A
:101F7600031DBE2FBF2FC02FED2F4230C1004C30A6
:101F8600C0000030BF000030BE000A128A15F720DC
:101F96000A128A15831203133508C5003408C400D3
:101FA6003308C3003208C2000A128A15AF220A1289
:101FB6008A150318DF2FE02FE12FED2F831203136D
:101FC6006A086B04031DE82FE92FED2F0619EC2F85
:101FD600ED2FB62F83120313081368086904031D37
:101FE600F52FF62FEA2D013083160313DB000030A0
:0A1FF600DC00EA2D0A128A111228FD
:102A940000300A168A1157250A168A1101300A16BF
:102AA4008A1157250A168A110800F30083120313AA
:102AB400071073080A168A11AD250A168A118312A3
:102AC400031307150630F2003030F100F10B682DC6
:102AD400F20B682D00008312031307110800831200
:102AE4000313A700071027080A168A118D250A1652
:102AF4008A11831203130715063083120313A600E9
:102B04002F30A500A50B842DA60B842D892D8312AF
:102B140003130711080083120313A400241C932D2C
:102B2400942D962D0716972D0712A41C9A2D9B2DD4
:102B34009D2D87169E2D8712241DA12DA22DA42D17
:102B44000717A52D0713A41DA82DA92DAB2D871795
:102B5400AC2D87130800F000701CB12DB22DB62DDA
:102B6400831203130716B92D831203130712F01CE3
:102B7400BC2DBD2DBF2D8716C02D8712701DC32DF2
:102B8400C42DC62D0717C72D0713F01DCA2DCB2D35
:102B9400CD2D8717CE2D8713080083120313AC00A5
:102BA400A801A9012408A600A7012608AA0027084D
:102BB400AB002C1CDE2DDF2DE52D2A08A8070318F9
:102BC400A90A2B08A90701300310AA0DAB0DFF3E7B
:102BD400031DE62D0310AC0C2C08031DF22DF32D60
:102BE400DB2D2908A5002808A4000800F4007408B7
:102BF4000F39F2007408F039F30083120313071439
:102C04007308F10004300310F10CFF3E031D052E80
:102C140071080A168A11AD250A168A118312031344
:102C240007150D30F100F10B152E83120313071154
:102C340072080A168A11AD250A168A118312031323
:102C440007150D30F100F10B252E83120313071124
:102C5400080083120313A80028080F39A6002808C7
:102C6400F039A70007142708A50004300310A50CA9
:102C7400FF3E031D382E25080A168A118D250A16D3
:102C84008A118312031307150C3083120313A50052
:102C9400A50B4A2E000083120313071126080A16F7
:102CA4008A118D250A168A118312031307150C3015
:102CB40083120313A500A50B5D2E000083120313DA
:102CC40007110800831203132C082D0403196B2E1B
:102CD4006C2E9B2EB101B10A7A2E01300310AC0D7B
:102CE400AD0DFF3E031D702E0130B0003008B1075A
:102CF400AD1F7D2E7E2E6F2E2D082F02031D842ED8
:102D04002C082E02031C872E882E8E2E2C08AE0231
:102D14002D08031CAF03AF0201300310AD0CAC0C43
:102D2400FF3E031D8F2E0130B102031D9A2E9B2EF0
:102D34007E2E2F08AD002E08AC000800FA01FB011E
:102D4400C52E7A087507F8007608F7000318F70A05
:102D5400FA1FAD2EF7037708F900790883120313DD
:102D6400FF00780884000A128A1500200A168A11C6
:102D74000A168A11F8250A168A110130FA0703186F
:102D8400FB0A0030FB077A087507F8007608F7009D
:102D94000318F70AFA1FCF2EF7037708F90079080A
:102DA40083120313FF00780884000A128A15002096
:102DB4000A168A11003A031DE02EE12EA32E080004
:102DC400F6007603031DE72EE82E052F74087F3ED8
:102DD400F9007908F50004300310F50CFF3E031DDB
:102DE400EE2E7508F70079080F39F80077080A16EF
:102DF4008A1157250A168A1178080A168A11572546
:102E04000A168A11272F02307606031D0A2F0B2F6C
:102E1400272F7408BF3EF9007908F5000430031029
:102E2400F50CFF3E031D112F7508F70079080F39C3
:102E3400F80077080A168A1157250A168A117808A5
:102E44000A168A1157250A168A11080083120313D9
:102E5400AE01AF01512F2E082907AC002A08AB00A0
:102E64000318AB0AAE1F372FAB03831203132B08CF
:102E7400AD002D08FF002C0884000A128A150020DA
:102E84000A168A110A168A112B260A168A1101308B
:102E940083120313AE070318AF0A0030AF072E08DE
:102EA4002907AC002A08AB000318AB0AAE1F5B2F3E
:102EB400AB03831203132B08AD002D08FF002C086D
:102EC40084000A128A1500200A168A11003A031D8A
:102ED4006C2F6D2F2D2F080083120313A901AA0153
:102EE400240825040319772F782FAF2FAB01AB0AE1
:102EF400862F01300310A40DA50DFF3E031D7C2F6A
:102F04000130A8002808AB07A51F892F8A2F7B2F23
:102F140001300310A90DAA0DFF3E031D8B2F2508B8
:102F24002702031D972F24082602031C9A2F9B2F88
:102F3400A22F2408A6022508031CA703A70229140C
:102F440001300310A50CA40CFF3E031DA32F013078
:102F5400AB02031DAE2FAF2F8A2F2A08A500290824
:102F6400A400080083120313AA002A03031DBB2F25
:102F7400BC2FDB2F28087F3EAD002D08A9000430AC
:102F84000310A90CFF3E031DC22F2908AB002D0816
:102F94000F39AC002B080A168A1171250A168A11FA
:102FA400831203132C080A168A1171250A168A1132
:102FB400FF2F02302A06031DE02FE12FFF2F2808E0
:102FC400BF3EAD002D08A90004300310A90CFF3E3C
:102FD400031DE72F2908AB002D080F39AC002B087F
:102FE4000A168A1171250A168A11831203132C08F2
:0C2FF4000A168A1171250A168A110800BD
:02400E00F63F7B
:00000001FF
