:020000040000FA
:060000000A128A11122809
:10000800FE00030E83120313A0000408A1000A08CF
:10001800A2007F08A3000A128A11E2290A128A1193
:100028001528FB01FC0183120313AF01B001B101D4
:10003800B20183010A128A112128FF3083160313A3
:10004800850003308600870188013F3081008312D4
:10005800031385018601870188018B170B170B167F
:10006800831603130C1483120313901010169016A2
:10007800DC308E000B308F000A128A1198200A1289
:100088008A110A128A1150230A128A118312031341
:10009800A801A80A01300A128A11FB200A128A1143
:1000A8001F300A128A118A220A128A118312031334
:1000B800A801A80A02300A128A11FB200A128A1122
:1000C80029300A128A118A220A128A11831203130A
:1000D800881631033204031D722873287528B1016C
:1000E800B2018813861879287A286D280A128A118D
:1000F80050230A128A1183120313A801A80A013097
:100108000A128A11FB200A128A1111300A128A1166
:100118008A220A128A11831203138817101488136B
:100128006D280A128A11122800300A128A11FA223E
:100138000A128A111A3083120313A900F730A80093
:10014800A80BA428A90BA428A92803300A128A11ED
:100158001A230A128A11073083120313A9007C306C
:10016800A800A80BB528A90BB528000003300A126F
:100178008A111A230A128A110F3083120313A90055
:100188004730A800A80BC628A90BC62803300A12B6
:100198008A111A230A128A1102300A128A111A23A2
:1001A8000A128A1102300A128A111A230A128A11B3
:1001B80008300A128A111A230A128A1100300A1208
:1001C8008A111A230A128A110C300A128A111A2368
:1001D8000A128A1100300A128A111A230A128A1185
:1001E80006300A128A111A230A128A110800831289
:1001F8000313AB002B03031D022903292829280810
:100208007F3EA9002908AE002E08A900043003107B
:10021800A90CFF3E031D0B292908AA002A08AC00D7
:100228002E080F39A9002908AD002C080A128A11D6
:100238001A230A128A11831203132D080A128A112B
:100248001A230A128A11522902302B06031D2D295E
:100258002E2952292808BF3EA9002908AE002E08D9
:10026800A90004300310A90CFF3E031D36292908F4
:10027800AA002A08AC002E080F39A9002908AD00E9
:100288002C080A128A111A230A128A1183120313DC
:100298002D080A128A111A230A128A110800F70077
:1002A8007703031D582959297C2974087F3EF500D6
:1002B8007508FA007A08F50004300310F50CFF3EC3
:1002C800031D61297508F6007608F8007A080F39C9
:1002D800F5007508F90078080A128A1136230A12FF
:1002E8008A1179080A128A1136230A128A11A42956
:1002F80002307706031D81298229A4297408BF3E8C
:10030800F5007508FA007A08F50004300310F50CBA
:10031800FF3E031D8A297508F6007608F8007A085A
:100328000F39F5007508F90078080A128A11362382
:100338000A128A1179080A128A1136230A128A11B6
:10034800080083120313A80028080F39A500250800
:10035800A6002808F039A5002508A70007142708D3
:10036800A50004300310A50CFF3E031DB62925087F
:100378000A128A11FA220A128A1183120313071524
:100388000C3083120313A500A50BC82900008312A3
:100398000313071126080A128A11FA220A128A116F
:1003A8008312031307150C3083120313A500A50B42
:1003B800DB29000083120313071108000C1CE52930
:1003C800E629F2290C10DC308E000B308F0001304A
:1003D800AF070318B00A0030B007112A8B1CF529A3
:1003E800F629112A8B1088130A128A115D230A1222
:1003F8008A11F401F40A01300A128A1153210A12EF
:100408008A1101300A128A11B3220A128A110130A4
:1004180083120313B1000030B2002308FF00220842
:100428008A0021088400200E8300FE0E7E0E09003B
:1004380002308A000408840A8207003449344E34A2
:1004480054344534523452344F344D345034493492
:1004580044344F342E342E342E340034443445344E
:100468005334503445344A3441344E3444344F3490
:100478002E342E342E3400345334493447344D341A
:100488004134203444344F344734003447345234F0
:1004980049344E3444345334453454340034F4002D
:1004A80074080F39F1007108F2007408F039F1008E
:1004B8007108F3008312031307147308F100043062
:1004C8000310F10CFF3E031D642A71080A128A11F9
:1004D800D8220A128A118312031307150D30F1006E
:1004E800F10B742A83120313071172080A128A1176
:1004F800D8220A128A118312031307150D30F1004E
:10050800F10B842A831203130711080083120313C3
:10051800AB00A901AA01A52A29082B0784000A1201
:100528008A111C220A128A110A128A11A5210A129A
:100538008A11013083120313A9070318AA0A00308D
:10054800AA0729082B0784000A128A111C220A12FA
:100558008A11003A031DB12AB22A902A0800F50030
:10056800F601F701CA2A7608750784000A128A116B
:100578001C220A128A110A128A1153220A128A119B
:100588000130F6070318F70A0030F70776087507F1
:1005980084000A128A111C220A128A11003A031DC9
:1005A800D62AD72AB72A0800F000701CDC2ADD2AD0
:1005B800E12A831203130716E42A8312031307128E
:1005C800F01CE72AE82AEA2A8716EB2A8712701D08
:1005D800EE2AEF2AF12A0717F22A0713F01DF52A47
:1005E800F62AF82A8717F92A8713080083120313B3
:1005F800A400241C002B012B032B0716042B071225
:10060800A41C072B082B0A2B87160B2B8712241DDB
:100618000E2B0F2B112B0717122B0713A41D152BAD
:10062800162B182B8717192B87130800831203130F
:10063800A700071027080A128A11FA220A128A113B
:10064800831203130715063083120313A6002F30F5
:10065800A500A50B2D2BA60B2D2B322B83120313D4
:1006680007110800F30083120313071073080A1216
:100678008A11D8220A128A11831203130715063029
:10068800F2003030F100F10B472BF20B472B000042
:10069800831203130711080000300A128A111A2363
:1006A8000A128A1101300A128A111A230A128A11AF
:1006B800080000300A128A1136230A128A11013002
:0C06C8000A128A1136230A128A11080057
:02400E00F23F7F
:00000001FF
