:020000040000FA
:060000000A128A11122809
:10000800FE00030E83120313A0000408A1000A08CF
:10001800A2007F08A3000A128A15DE280A128A1194
:100028001528FC01FD0183120313E801E901EA0127
:10003800EB0183160313DC01DD01DE01DF01E001C2
:10004800E101E201E301E401E50183010A128A15F5
:10005800A02D8312031341088039C6004608CB003F
:100068004108C6004607C7004708D100C01F3D2801
:100078003E283F285114510803194328442853287F
:10008800510A031D4828492851280030C100003072
:10009800C0000030BF000030BE00C0175B28003031
:1000A800C1000030C0000030BF000030BE0045086D
:1000B8008039C6004608CB064508C6004607C70073
:1000C8004708D000C41F69286A286B2850145008B4
:1000D80003196F2870287F28500A031D7428752873
:1000E8007D280030C5000030C4000030C300003057
:1000F800C200C41787280030C5000030C400003093
:10010800C3000030C200500803198B288C2891289E
:100118005108031D902891289A280030C10000300A
:10012800C0000030BF000030BE008D2B3E08C60066
:100138004608A40044080A128A11D4270A128A1110
:10014800831203132508D7002408D6005608C600D2
:10015800C701C801C9014908CF004808CE004708AF
:10016800CD004608CC005708C600C701C801C90120
:100178004908D5004808D4004708D3004608D200EB
:100188003F08C6004608A40043080A128A11D4276B
:100198000A128A11831203132508D7002408D600EF
:1001A8005608C600C701C801C9014608CC07470858
:1001B80003110318013E0319E228CD07480803116B
:1001C8000318013E0319E928CE074908031103184B
:1001D800013E0319F028CF075708C600C701C80118
:1001E800C9014608D207470803110318013E03193D
:1001F800FE28D307480803110318013E03190529EF
:10020800D407490803110318013E03190C29D5071F
:100218004008C6004608A40042080A128A11D427DA
:100228000A128A11831203132508D7002408D6005E
:100238005608C600C701C801C9014608CC074708C7
:1002480003110318013E03192A29CD074808031191
:100258000318013E03193129CE0749080311031871
:10026800013E03193829CF075708C600C701C8013E
:10027800C9014608D207470803110318013E0319AC
:100288004629D307480803110318013E03194D29CD
:10029800D407490803110318013E03195429D50747
:1002A8000830C6000310CC0DCD0DCE0DCF0DC60BFA
:1002B80056293F08C6004608A40042080A128A11B7
:1002C800D4270A128A11831203132508D700240899
:1002D800D6005608C6005708C700C801C901460815
:1002E800CC07470803110318013E03197C29CD07E1
:1002F800480803110318013E03198329CE0749084A
:1003080003110318013E03198A29CF073E08C600C6
:100318004608A40043080A128A11D4270A128A112F
:10032800831203132508D7002408D6005608C600F0
:100338005708C700C801C9014608CC074708031178
:100348000318013E0319A929CD074808031103180A
:10035800013E0319B029CE07490803110318013ECD
:100368000319B729CF070830C6000310CC0DCD0DEF
:10037800CE0DCF0DC60BB9293E08C6004608A4000D
:1003880042080A128A11D4270A128A118312031307
:100398002508D7002408D6005608C6005708C70005
:1003A800C801C9014608CC07470803110318013ED4
:1003B8000319DF29CD07480803110318013E031963
:1003C800E629CE07490803110318013E0319ED2950
:1003D800CF073F08C6004608A40044080A128A113D
:1003E800D4270A128A11831203132508D700240878
:1003F800D6005608C6005708C700C801C9014608F4
:10040800D207470803110318013E03190C2AD30722
:10041800480803110318013E0319132AD407490891
:1004280003110318013E03191A2AD5074008C6000C
:100438004608A40043080A128A11D4270A128A110E
:10044800831203132508D7002408D6005608C600CF
:100458005708C700C801C9014608D2074708031151
:100468000318013E0319392AD30748080311031852
:10047800013E0319402AD407490803110318013E15
:100488000319472AD5074008C6004608A4004408AF
:100498000A128A11D4270A128A1183120313250813
:1004A800D7002408D6005608C6005708C700C80158
:1004B800C90108300310C60DC70DC80DC90DFF3E90
:1004C800031D5E2A4608D207470803110318013E98
:1004D80003196F2AD307480803110318013E0319AB
:1004E800762AD407490803110318013E03197D2A07
:1004F800D5074C08C6004D08C7004E08C8004F086D
:10050800C90018300310C90CC80CC70CC60CFF3E34
:10051800031D862A4608D207470803110318013E1F
:100528000319972AD307480803110318013E031932
:100538009E2AD407490803110318013E0319A52A66
:10054800D5070830C6000310CC0DCD0DCE0DCF0D4C
:10055800C60BA72A51085007C600C701C70D460891
:10056800823ED60047080318013EFF3ED700D92A2D
:100578000130C6000310D20DD30DD40DD50DC60B16
:10058800BE2ACF1FC82AC92ACA2A52140130C60057
:100598000310CC0DCD0DCE0DCF0DC60BCC2AFF30E0
:1005A800D6070318D70AFF30D707D41FDC2ADD2A5D
:1005B800BC2AD001CF1FE12AE22AFE2AFF304C05CF
:1005C800C600FF304D05C700FF304E05C8007F301C
:1005D8004F05C90049084804470446040319F52A89
:1005E800F62AF92AD001D00AFE2A521CFC2AFD2A32
:1005F800FE2AF62A50080319022B032B342B01304C
:10060800D207003003180130D30700300318013037
:10061800D407003003180130D507551C142B152BAF
:10062800342B5208C6005308C7005408C8005508A0
:10063800C9000130CA00490DC90CC80CC70CC60C4A
:10064800CA0B1F2B4908D5004808D4004708D30017
:100658004608D2000130D6070318D70A0030D7075A
:100668005708803AFF0080307F02031D3D2BFF3082
:100678005602031C402B412B4C2B7F308312031353
:10068800D5008030D4000030D3000030D200812B58
:10069800831203135708803AFF0080307F02031D3E
:1006A800572B0130560203185A2B5B2B672B00304F
:1006B80083120313D5000030D4000030D30000307B
:1006C800D200CB01812B831203135608C6004608BB
:1006D800D100FF30D205FF30D3057F30D40500307C
:1006E800D505511C782B792B7A2BD4175108C600C5
:1006F8000310460CC7004708D5004B08C60046083B
:10070800D5045508C1005408C0005308BF0052085A
:10071800BE000800831203135F088039E0006008F8
:1007280083160313A400831203135F08E000600715
:10073800E100610883160313AB0083120313DE1F65
:10074800A62BA72BAA2B831603132B14831603138C
:100758002B080319B02BB12BC42B2B0A031DB52B67
:10076800B62BC02B003083120313DF000030DE00ED
:100778000030DD000030DC008312DE17DF01CE2BF5
:10078800003083120313DF000030DE000030DD008C
:100798000030DC005B088039E00060088316031332
:1007A800A406831203135B08E0006007E1006108F8
:1007B80083160313AC0083120313DA1FE42BE52B13
:1007C800E82B831603132C14831603132C08031920
:1007D800EE2BEF2B022C2C0A031DF32BF42BFE2BF4
:1007E800003083120313DB000030DA000030D90038
:1007F8000030D8008312DA17DB010C2C003083128A
:100808000313DB000030DA000030D9000030D800D4
:100818005B085A0459045804031D132C142C312C5A
:100828000030DF000030DE000030DD000030DC008A
:100838008030DE047F30DF0483160313240883121C
:100848000313E0006008DF045F08DB005E08DA00DD
:100858005D08D9005C08D8002D2E831603132B08D9
:10086800031D372C382C432C003083120313DB0074
:100878000030DA000030D9000030D8002D2E2B08C7
:1008880083120313E000E1016108E30083160313F8
:100898002C08831203136002E200031CE3036208BE
:1008A8007F3E83160313A5008312031363080318FE
:1008B800013E003E83160313A600831203135F084C
:1008C80083160313A300831203135E08831603130E
:1008D800A200831203135D0883160313A100831279
:1008E80003135C0883160313A0000030831203135C
:1008F800DF000030DE000030DD000030DC000030BA
:1009080083160313AA000030A9000030A8000030A5
:10091800A700AC01152D2C080319932C942CC32C7B
:10092800013083120313E000031083160313A00D94
:10093800A10DA20DA30D83120313E00B982C013017
:10094800E0000310DC0DDD0DDE0DDF0DE00BA52C46
:1009580083160313AA1FB12CB22CB52C83120313D0
:100968005C1401308312E000031083160313A70DF3
:10097800A80DA90DAA0D83120313E00BB82C83123E
:100988005B08831603132302031DE02C8312031351
:100998005A08831603132202031DE02C8312031343
:1009A8005908831603132102031DE02C8312031335
:1009B8005808831603132002031CE32CE42C0D2D86
:1009C8002A1783120313580883160313A0028312ED
:1009D80003135908031C590FF22CF52C8316031323
:1009E800A102831203135A08031C5A0FFC2CFF2C74
:1009F80083160313A202831203135B08031C5B0F05
:100A0800062D092D83160313A302831203138316DD
:100A18000313013083120313E000600883160313E5
:100A2800AC071A302C02031C1A2D1B2D8F2C2308FF
:100A38002204210420040319222D232D4D2D2714CF
:100A48004D2D0130E0000310DC0DDD0DDE0DDF0D56
:100A5800E00B272D83160313AA1F332D342D372DB2
:100A6800831203135C1401308312E0000310831611
:100A78000313A70DA80DA90DAA0D83120313E00BEC
:100A88003A2DFF3083160313A5070318A60AFF3073
:100A9800A60783120313DE1F522D532D252D83160F
:100AA8000313AC01AA1F592D5A2D862DFF30270597
:100AB80083120313E000FF30831603132805831203
:100AC8000313E100FF308316031329058312031370
:100AD800E2007F30831603132A0583120313E30011
:100AE800630862046104600403197B2D7C2D812D49
:100AF80083160313AC01AC0A862D5C1C842D852D4E
:100B0800862D7C2D831603132C0803198C2D8D2D0F
:100B1800C22D013083120313DC07003003180130A3
:100B2800DD07003003180130DE07003003180130FC
:100B3800DF075F1CA02DA12DC22D5C08E0005D0819
:100B4800E1005E08E2005F08E3000130E400630DA5
:100B5800E30CE20CE10CE00CE40BAB2D6308DF00C6
:100B68006208DE006108DD006008DC0001308316E1
:100B78000313A5070318A60A0030A6078316031354
:100B88002608803AFF0080307F02031DCD2DFF30FC
:100B98002502031CD02DD12DE12DFF308316031320
:100BA800A5000030A600003083120313DF000030D8
:100BB800DE000030DD000030DC0083160313260859
:100BC800803AFF0080307F02031DEC2D01302502A2
:100BD8000318EF2DF02D012E83160313A501A6018E
:100BE800003083120313DF000030DE000030DD0028
:100BF8000030DC0083160313A401831603132508B1
:100C080083120313E000600883160313AB002B1C48
:100C18000E2E0F2E132E83120313DE17192E7F307C
:100C280083120313E0006008DE05831603132B0804
:100C380083120313E0000310600CE1006108DF0079
:100C480083160313240883120313E0006008DF04EB
:100C5800282C080083120313BD003330B500350873
:100C6800B800012F25303E0603193B2E3C2E482E96
:100C78003E08B5003D088400350883138000013024
:100C8800B5003508BD07012FB9010130B207FF30A3
:100C9800320784000A128A150A200A128A11BE0035
:100CA800B500B6013608003A03195B2E3C2E35080C
:100CB800003A0319132F643A0319662E0D3A0319E3
:100CC800662E3C2E3808840083130008BB00840A73
:100CD8000008BC000230B5003508B807BC1F752EE7
:100CE800762E7F2E0330B5003508B904BB09BC0940
:100CF800BB0A0319BC0ABE01BE0A3E08B500350787
:100D0800013E84000A128A150A200A128A11B600C6
:100D18000A128A150A200A128A11B70037083C02FB
:100D2800031D982E36083B0203189B2E9C2E9D2EE1
:100D3800A72E0130B5003508BE0705303E06031D55
:100D4800A62EA72E812E390803390319AC2EAD2EF5
:100D5800B82E2D30B5003D08840035088313800077
:100D68000130B5003508BD073E08B5003508BA00A2
:100D7800F82E0A30AC000030AD003A08B50035074F
:100D8800013E84000A128A150A200A128A11A40058
:100D98000A128A150A200A128A11A5003C08A7001F
:100DA8003B08A6000A168A11B4260A128A11831271
:100DB80003132508AF002408AE000A168A11B325CC
:100DC8000A128A11831203132C08303EB600360823
:100DD800BE003E08B5003D08840035088313800036
:100DE8000130B5003508BD07FF30B5003508BA0732
:100DF8003A0A031D002F012FBD2E0130B207FF3024
:100E0800320784000A128A150A200A128A11B500CC
:100E18003508BE003E08031D122F132F362E3D083D
:100E2800840083138001080083120313AC002C088C
:100E380003191F2F202F342FA71F232F242F342FC0
:100E48002409AE002509AF002609B0002709B10022
:100E5800AE0A0319AF0A0319B00A0319B10A3C2FE5
:100E68002708B1002608B0002508AF002408AE0006
:100E78002708260425042404031D432F442F4D2F3F
:100E88000030A7000030A6000030A5000030A40004
:100E9800D32F9630A8002808AD005F2F0130A80096
:100EA8002808AD0701300310B10CB00CAF0CAE0C24
:100EB800FF3E031D572FFE303105031D642F652F9C
:100EC800522F812F0130A8002808AD070130AE0746
:100ED800003003180130AF07003003180130B007A5
:100EE800003003180130B10701300310B10CB00C09
:100EF800AF0CAE0CFF3E031D792FFF303105031DEB
:100F0800862F872F662F932F0130AD020130A8005E
:100F18000310AE0DAF0DB00DB10DA80B8C2FB01B8B
:100F2800962F972F9D2F02302D0203189C2F9D2F4F
:100F3800882F2D18A02FA12FA92FFF30AE05FF3025
:100F4800AF057F30B005FF30B1050310AD0C2D089B
:100F5800A800A901AA01AB0118300310A80DA90D1A
:100F6800AA0DAB0DFF3E031DB12F2808AE042908BA
:100F7800AF042A08B0042B08B1042C080319C52FA4
:100F8800C62FCB2FA71FC92FCA2FCB2FB1173108B8
:100F9800A7003008A6002F08A5002E08A400080006
:100FA80083120313AC00A801A9012408A600A70115
:100FB8002608AA002708AB002C1CE32FE42FEA2FF1
:100FC8002A08A8070318A90A2B08A9070130031043
:100FD800AA0DAB0DFF3E031DEB2F0310AC0C2C0824
:100FE800031DF72FF82FE02F2908A5002808A400D3
:020FF8000800EF
:10100000FF1B0A2883137F1883170008840A03191B
:10101000FF0A080008308A000408840A82070034A6
:10102000013400340A34003464340034E8340334C6
:10103000103427344534533454344F3451345534F8
:101040004534203445344D3420344E3449345634FC
:1010500045344C34003452344134433441344F34F9
:10106000203443344F344C344F34433441344434CB
:1010700041342E340034433461346D346234753479
:101080006334613420343D342034253464342534D1
:10109000253400344534733474346F34713475340A
:1010A000653420343D3420342534643425342534EB
:1010B0000034443445345334503445344A34413494
:1010C0004E3444344F342E342E342E3400344634CF
:1010D00055344E34433449344F344E3441344D3416
:1010E00045344E3454344F34003449344E3454343F
:1010F0004534523452344F344D34503449344434EE
:101100004F34003442344134493458344F342E344F
:061110002E342E340034E1
:10111800F7007703031D91289228B52874087F3EAD
:10112800F5007508FA007A08F50004300310F50C8C
:10113800FF3E031D9A287508F6007608F8007A081D
:101148000F39F5007508F90078080A168A11042580
:101158000A128A1579080A168A1104250A128A15AC
:10116800DD2802307706031DBA28BB28DD2874085D
:10117800BF3EF5007508FA007A08F5000430031040
:10118800F50CFF3E031DC3287508F6007608F80025
:101198007A080F39F5007508F90078080A168A11D7
:1011A80004250A128A1579080A168A1104250A12D2
:1011B8008A1508000C1CE128E228FF280C10DC30F6
:1011C8008E000B308F0064000130FC070318FD0A05
:1011D8000030FD0708307C067D04031DF428F5283F
:1011E8003329831203131010FC01FD010130EA00BA
:1011F8000030EB0033298B1C0229032933298B107B
:10120800881364000A168A11EA240A128A15F4015E
:10121800F40A01300A128A158C200A128A155830ED
:10122800F5008030F6000A168A112C260A128A1553
:10123800F401F40A02300A128A158C200A128A155F
:101248006630F5008030F6000A168A112C260A123C
:101258008A15013083120313E8000030E900831275
:1012680003132308FF0022088A0021088400200EA7
:101278008300FE0E7E0E090000300A168A113A25F8
:101288000A128A151A3083120313A900F730A8002E
:10129800A80B4C29A90B4C29512903300A168A118D
:1012A8001E250A128A15073083120313A9007C3001
:1012B800A800A80B5D29A90B5D29000003300A16B8
:1012C8008A111E250A128A150F3083120313A900EA
:1012D8004730A800A80B6E29A90B6E2903300A16FF
:1012E8008A111E250A128A1502300A168A111E252D
:1012F8000A128A1502300A168A111E250A128A1540
:1013080008300A168A111E250A128A1500300A1694
:101318008A111E250A128A150C300A168A111E25F2
:101328000A128A1500300A168A111E250A128A1511
:1013380006300A168A111E250A128A150800831615
:101348000313BB01B71FA929AA29B129B609B709EF
:10135800B60A0319B70ABB01BB0AB91FB429B529D4
:10136800C229B809B909B80A0319B90A01308312A0
:101378000313E700670883160313BB06BC01BD010E
:10138800360837040319C929CA29052ABA01BA0A2D
:10139800DC2901300310B60DB70DFF3E031DCE2921
:1013A800013083120313E700670883160313BA0793
:1013B800B71FDF29E029CD2901300310BC0DBD0D71
:1013C800FF3E031DE12937083902031DED293608C0
:1013D8003802031CF029F129F8293608B802370821
:1013E800031CB903B9023C1401300310B70CB60C46
:1013F800FF3E031DF9290130BA02031D042A052AFC
:10140800E0293B080319092A0A2A0F2ABC09BD0941
:10141800BC0A0319BD0A3D08B7003C08B60008001D
:101428000310831603132F0D300DB10031088312FA
:101438000313E6006608031D222A232A2E2A0030F9
:1014480083160313B0000030AF000030AE00003048
:10145800AD00A52A831603132D08B1002E08B2008B
:101468002F08B3003008B4001F300310B40CB30CBD
:10147800B20CB10CFF3E031D392A3108B5003508FE
:1014880083120313E50083160313AF17FF30AD056E
:10149800FF30AE05FF30AF050030B005963083123F
:1014A8000313E602E61F592A5A2A782A6608803A60
:1014B800973E0318602A612A622A232A0130031002
:1014C80083160313B00CAF0CAE0CAD0CFF3E031D1E
:1014D800632A0130B100310883120313E607031DA4
:1014E800762A772A622A932A20306602031C7D2AEC
:1014F8007E2A8E2A232A013083160313B100031093
:10150800AD0DAE0DAF0DB00DB10B832A01308312B6
:101518000313E6026608031D922A932A7F2A6508A8
:101528000319972A982AA52A83160313AD09AE0929
:10153800AF09B009AD0A0319AE0A0319AF0A0319B6
:10154800B00A08000030831203133E05C6000030BD
:101558003F05C70080304005C8007F304105C900FD
:101568004908480447044604031DBB2ABC2AC42A68
:101578000030C1000030C0000030BF000030BE00A5
:1015880000304205C60000304305C70080304405DE
:10159800C8007F304505C900490848044704460487
:1015A800031DD72AD82AE02A0030C5000030C4001D
:1015B8000030C3000030C200C11FE32AE42A082B10
:1015C8000030C6000030C7000030C8008030C900B5
:1015D8003E08C6023F08031C3F0FF32AF42AC7023D
:1015E8004008031C400FF92AFA2AC8024108031CC4
:1015F800410FFF2A002BC9024908C1004808C00052
:101608004708BF004608BE00C51F0B2B0C2B302B0C
:101618000030C6000030C7000030C8008030C90064
:101628004208C6024308031C430F1B2B1C2BC7028E
:101638004408031C440F212B222BC8024508031C15
:10164800450F272B282BC9024908C5004808C400A4
:101658004708C3004608C2008030C1068030C5066E
:1016680045084102031D422B44084002031D422B3A
:1016780043083F02031D422B42083E020318452B34
:10168800462B482B0310492B03140800FF30831600
:101698000313B6000030B7000A168A11FA260A1298
:1016A8008A15831203133508C5003408C4003308AB
:1016B800C3003208C2004230C100C830C000003048
:1016C800BF000030BE000A128A112D200A128A15A6
:1016D80083120313410883160313B0008312031304
:1016E800400883160313AF00831203133F088316C1
:1016F8000313AE00831203133E0883160313AD00D1
:101708000A128A1514220A128A15831603132E0840
:10171800B9002D08B8000A128A15A3210A128A15E1
:10172800831603133708D6003608D500FF30B600F5
:101738000030B7000A168A1151270A128A15831237
:1017480003133508C5003408C4003308C300320841
:10175800C2004230C100C830C0000030BF000030B5
:10176800BE000A128A112D200A128A158312031349
:10177800410883160313B00083120313400883162D
:101788000313AF00831203133F0883160313AE003D
:10179800831203133E0883160313AD000A128A1539
:1017A80014220A128A15831603132E08B9002D086D
:1017B800B8000A128A15A3210A128A158316031380
:1017C8003708D8003608D700640865040319ED2BDC
:1017D800EE2BF42B5C035D04031DF32BF42B202D5F
:1017E8003B30BE003E0883120313B2008316031376
:1017F800580883120313B40083160313570883127F
:101808000313B300C1300A128A112E260A128A1550
:101818000A168A11F7240A128A1583120313A801DB
:10182800A80A01300A168A11A8270A128A15C13097
:1018380083120313A9000030AA000A168A116E2623
:101848000A128A152C3083160313BE003E08831231
:101858000313B20083160313560883120313B4004C
:1018680083160313550883120313B300C1300A12F9
:101878008A112E260A128A1583120313A801A80AB0
:1018880002300A168A11A8270A128A15C130831253
:101898000313A9000030AA000A168A116E260A123C
:1018A8008A15013083160313E4000030E5000A1698
:1018B8008A11FA260A128A15831203133508C500FD
:1018C8003408C4003308C3003208C2004230C100E3
:1018D800C830C0000030BF000030BE000A128A11B4
:1018E8002D200A128A15831203134108DF004008CD
:1018F800DE003F08DD003E08DC004330DB007F30BF
:10190800DA000030D9000030D8000A128A118E237C
:101918000A128A15831203135B0883160313B00097
:10192800831203135A0883160313AF008312031399
:10193800590883160313AE0083120313580883163D
:101948000313AD000A128A1514220A128A15831687
:1019580003132E08E1002D08E0000A168A1151270A
:101968000A128A15831203133508C5003408C40007
:101978003308C3003208C2004230C100C830C0007A
:101988000030BF000030BE000A128A112D200A1252
:101998008A15831203134108DF004008DE003F0860
:1019A800DD003E08DC004330DB007F30DA00003029
:1019B800D9000030D8000A128A118E230A128A151B
:1019C800831203135B0883160313B00083120313F7
:1019D8005A0883160313AF0083120313590883169A
:1019E8000313AE0083120313580883160313AD00C4
:1019F8000A128A1514220A128A15831603132E084E
:101A0800DF002D08DE005C035D04031D0C2D0D2D89
:101A18001B2D0B3083160313C0002630BF005D302A
:101A2800BE00BE0B152DBF0B152DC00B152D831633
:101A38000313DC01DD0164008316031356086106F5
:101A4800031D282D55086006031D2B2D2C2D362D22
:101A580058085F06031D322D57085E060319352DF9
:101A6800362D9F2D5608E1005508E0005808DF0084
:101A78005708DE003B30BE003E0883120313B20055
:101A880083160313580883120313B4008316031331
:101A9800570883120313B300C1300A128A112E2685
:101AA8000A128A150A168A11F7240A128A1583124D
:101AB8000313A801A80A01300A168A11A8270A12D6
:101AC8008A15C13083120313A9000030AA000A1630
:101AD8008A116E260A128A152C3083160313BE004B
:101AE8003E0883120313B2008316031356088312A9
:101AF8000313B40083160313550883120313B300AA
:101B0800C1300A128A112E260A128A15831203136B
:101B1800A801A80A02300A168A11A8270A128A15EB
:101B2800C13083120313A9000030AA000A168A11D3
:101B38006E260A128A150800FF30831603138500E3
:101B480007308600870188013F3081008312031324
:101B580085018601870188018B170B170B168316E1
:101B680003130C1483120313901010169016DC3014
:101B78008E000B308F00831603131F109F101F1148
:101B88009F11831203131F139F13831603139F13AD
:101B98009E01831203139E011F14831603138115DC
:101BA80001148114011564000A128A1540210A12D1
:101BB8008A150A128A154A230A128A1583120313F0
:101BC8008816E801E901EA01EB0183160313E40131
:101BD800E5010A128A154A230A128A156400FF2DA4
:101BE8008618F72DF82DFF2DE801E9010A128A154C
:101BF8004A230A128A158312031368036904031916
:101C0800062E072EF42D06190A2E0B2E6F2E6400B1
:101C180083120313EA01EB010A168A11F7240A1248
:101C28008A1583120313A801A80A01300A168A111B
:101C3800A8270A128A154A3083120313A900803094
:101C4800AA000A168A116E260A128A15831203132D
:101C580010142F2E88176A086B04031D342E352E96
:101C68003B2E6808690403193A2E3B2E2E2E881342
:101C780068086904031D412E422E6F2E0A168A1128
:101C8800F7240A128A1583120313A801A80A01303F
:101C98000A168A11A8270A128A151C308312031300
:101CA800A9008030AA000A168A116E260A128A151F
:101CB8000B3083160313DB002630DA005D30D900C1
:101CC800D90B642EDA0B642EDB0B642E0A128A15EC
:101CD8004A230A128A15423083120313C1004C307A
:101CE800C0000030BF000030BE000A168A11FA2674
:101CF8000A128A15831203133508C5003408C40074
:101D08003308C3003208C2000A128A15A6220A1232
:101D18008A15031C902E912E5A2F423083120313DA
:101D2800C1004C30C0000030BF000030BE000A16B1
:101D38008A1151270A128A15831203133508C50020
:101D48003408C4003308C3003208C2000A128A15D6
:101D5800A6220A128A150318B22EB32E5A2F8312FE
:101D6800031368086904031DBA2EBB2E5A2F64009A
:101D78000A168A11F7240A128A1583120313A80176
:101D8800A80A01300A168A11A8270A128A154A30A9
:101D980083120313A9008030AA000A168A116E263E
:101DA8000A128A15E22E6400831203136803690479
:101DB800031DDF2EE02EE12E242F88170A168A1124
:101DC800FA260A128A15831203133508C10034084B
:101DD800C0003308BF003208BE004330C5004C3095
:101DE800C4000030C3000030C2000A128A15A622BF
:101DF8000A128A150318012F022F242F423083124A
:101E08000313C1004C30C0000030BF000030BE00DA
:101E18000A168A1151270A128A15831203133508E4
:101E2800C5003408C4003308C3003208C2000A12CF
:101E38008A15A6220A128A15031C232F242FD72EAF
:101E48008312031368086904031D2B2F2C2F5A2FA4
:101E580088130A168A11F7240A128A1583120313A3
:101E6800A801A80A01300A168A11A8270A128A1599
:101E78001C3083120313A9008030AA000A168A11A5
:101E88006E260A128A150B3083160313DB002630E0
:101E9800DA005D30D900D90B4F2FDA0B4F2FDB0B4F
:101EA8004F2F0A128A154A230A128A1542308312C2
:101EB8000313C1004C30C0000030BF000030BE002A
:101EC8000A168A1151270A128A1583120313350834
:101ED800C5003408C4003308C3003208C2000A121F
:101EE8008A15A6220A128A15031C7B2F7C2FED2D3A
:101EF800640083160313DC01DD0183120313EA0176
:101F0800EB0108170A168A11F7240A128A15831298
:101F18000313A801A80A01300A168A11A8270A1271
:101F28008A150B3083120313A9008030AA000A1601
:101F38008A116E260A128A1583120313A801A80AA9
:101F480002300A168A11A8270A128A1573308312DA
:101F58000313A9008030AA000A168A116E260A12F5
:101F68008A15831203131014E12F68036904031DF3
:101F7800BE2FBF2FC02FED2F4230C1004C30C00004
:101F88000030BF000030BE000A168A1151270A121D
:101F98008A15831203133508C5003408C4003308B2
:101FA800C3003208C2000A128A15A6220A128A152C
:101FB8000318DF2FE02FE12FED2F831203136A0898
:101FC8006B04031DE82FE92FED2F0619EC2FED2FD9
:101FD800B92F83120313081368086904031DF52F2A
:101FE800F62FED2D013083160313DC000030DD00E1
:081FF800ED2D0A128A111228D6
:1029D40000300A168A1104250A168A1101300A16D3
:1029E4008A1104250A168A11080000300A168A1171
:1029F4001E250A168A1101300A168A111E250A1686
:102A04008A110800F30083120313071073080A16CF
:102A14008A115A250A168A118312031307150630E0
:102A2400F2003030F100F10B152DF20B152D0000E2
:102A3400831203130711080083120313A70007105E
:102A440027080A168A113A250A168A1183120313D3
:102A54000715063083120313A6002F30A500A50B1B
:102A6400312DA60B312D362D8312031307110800C7
:102A740083120313A400241C402D412D432D07165B
:102A8400442D0712A41C472D482D4A2D87164B2D83
:102A94008712241D4E2D4F2D512D0717522D07132C
:102AA400A41D552D562D582D8717592D8713080011
:102AB400F000701C5E2D5F2D632D83120313071627
:102AC400662D831203130712F01C692D6A2D6C2DD9
:102AD40087166D2D8712701D702D712D732D07179C
:102AE400742D0713F01D772D782D7A2D87177B2DE4
:102AF40087130800F40074080F39F1007108F2001C
:102B04007408F039F1007108F300831203130714F9
:102B14007308F10004300310F10CFF3E031D8D2DEA
:102B240071080A168A115A250A168A118312031388
:102B340007150D30F100F10B9D2D831203130711BE
:102B440072080A168A115A250A168A118312031367
:102B540007150D30F100F10BAD2D8312031307118E
:102B64000800831203132C082D040319BA2DBB2D5E
:102B7400EA2DB101B10AC92D01300310AC0DAD0D20
:102B8400FF3E031DBF2D0130B0003008B107AD1F5B
:102B9400CC2DCD2DBE2D2D082F02031DD32D2C0899
:102BA4002E02031CD62DD72DDD2D2C08AE022D08A8
:102BB400031CAF03AF0201300310AD0CAC0CFF3E9D
:102BC400031DDE2D0130B102031DE92DEA2DCD2DAB
:102BD4002F08AD002E08AC00080083120313A800D0
:102BE40028080F39A5002508A6002808F039A500F3
:102BF4002508A70007142708A50004300310A50C16
:102C0400FF3E031D002E25080A168A113A250A16CE
:102C14008A118312031307150C3083120313A500C2
:102C2400A50B122E000083120313071126080A169F
:102C34008A113A250A168A118312031307150C30D8
:102C440083120313A500A50B252E00008312031382
:102C540007110800FA01FB01512E7A087507F800E4
:102C64007608F7000318F70AFA1F392EF7037708D6
:102C7400F900790883120313FF00780884000A120C
:102C84008A1500200A168A110A168A117C250A164A
:102C94008A110130FA070318FB0A0030FB077A088F
:102CA4007507F8007608F7000318F70AFA1F5B2E79
:102CB400F7037708F900790883120313FF007808F3
:102CC40084000A128A1500200A168A11003A031D8C
:102CD4006C2E6D2E2F2E080083120313AE01AF014C
:102CE400972E2E082907AC002A08AB000318AB0A5C
:102CF400AE1F7D2EAB03831203132B08AD002D08EA
:102D0400FF002C0884000A128A1500200A168A1172
:102D14000A168A11EF250A168A1101308312031349
:102D2400AE070318AF0A0030AF072E082907AC001E
:102D34002A08AB000318AB0AAE1FA12EAB03831203
:102D440003132B08AD002D08FF002C0884000A1281
:102D54008A1500200A168A11003A031DB22EB32EDA
:102D6400732E080083120313A901AA012408250461
:102D74000319BD2EBE2EF52EAB01AB0ACC2E0130AD
:102D84000310A40DA50DFF3E031DC22E0130A800A3
:102D94002808AB07A51FCF2ED02EC12E013003105B
:102DA400A90DAA0DFF3E031DD12E25082702031DE0
:102DB400DD2E24082602031CE02EE12EE82E240832
:102DC400A6022508031CA703A70229140130031037
:102DD400A50CA40CFF3E031DE92E0130AB02031D1C
:102DE400F42EF52ED02E2A08A5002908A4000800E8
:102DF400023083120313B600B60BFE2E00008312BA
:102E040003139F15023083120313B600B60B082F69
:102E14000000831203131F12023083120313B6003F
:102E2400B60B122F0000831203139F120230831279
:102E34000313B600B60B1C2F0000831203131F15D7
:102E4400023083120313B600B60B262F0000831240
:102E540003131E08B600B701B801B9013908A70069
:102E64003808A6003708A5003608A40000300A1266
:102E74008A1118270A168A11831203132708BD0022
:102E84002608BC002508BB002408BA003D08B5008C
:102E94003C08B4003B08B3003A08B2000800023012
:102EA40083120313B600B60B552F000083120313CD
:102EB4009F11023083120313B600B60B5F2F00007C
:102EC400831203131F12023083120313B600B60BCE
:102ED400692F0000831203139F120230831203131D
:102EE400B600B60B732F0000831203131F150230B4
:102EF40083120313B600B60B7D2F00008312031355
:102F04001E08B600B701B801B9013908A70038088E
:102F1400A6003708A5003608A40000300A128A115A
:102F240018270A168A11831203132708BD002608DE
:102F3400BC002508BB002408BA003D08B5003C08C5
:102F4400B4003B08B3003A08B2000800831203132C
:102F5400AB002B03031DAF2FB02FD52F28087F3EC6
:102F6400A9002908AE002E08A90004300310A90CFA
:102F7400FF3E031DB82F2908AA002A08AC002E081A
:102F84000F39A9002908AD002C080A168A111E253C
:102F94000A168A11831203132D080A168A111E2594
:102FA4000A168A11FF2F02302B06031DDA2FDB2F9E
:102FB400FF2F2808BF3EA9002908AE002E08A9004B
:102FC40004300310A90CFF3E031DE32F2908AA00B7
:102FD4002A08AC002E080F39A9002908AD002C08D6
:102FE4000A168A111E250A168A11831203132D0844
:0C2FF4000A168A111E250A168A11080010
:02400E00F63F7B
:00000001FF
